{
  "_format": "hh-sol-artifact-1",
  "contractName": "MonadTokenDistribute",
  "sourceName": "contracts/MonadTokenDistribute.sol",
  "abi": [
    {
      "inputs": [],
      "stateMutability": "nonpayable",
      "type": "constructor"
    },
    {
      "anonymous": false,
      "inputs": [
        {
          "indexed": true,
          "internalType": "address",
          "name": "claimant",
          "type": "address"
        },
        {
          "indexed": false,
          "internalType": "uint256",
          "name": "amount",
          "type": "uint256"
        },
        {
          "indexed": false,
          "internalType": "uint256",
          "name": "timestamp",
          "type": "uint256"
        }
      ],
      "name": "TokensClaimed",
      "type": "event"
    },
    {
      "inputs": [
        {
          "internalType": "uint256",
          "name": "amount",
          "type": "uint256"
        },
        {
          "internalType": "uint256",
          "name": "nonce",
          "type": "uint256"
        },
        {
          "internalType": "uint256",
          "name": "deadline",
          "type": "uint256"
        },
        {
          "internalType": "bytes",
          "name": "signature",
          "type": "bytes"
        }
      ],
      "name": "claim",
      "outputs": [],
      "stateMutability": "nonpayable",
      "type": "function"
    },
    {
      "inputs": [
        {
          "internalType": "address",
          "name": "",
          "type": "address"
        }
      ],
      "name": "claimedNonce",
      "outputs": [
        {
          "internalType": "uint256",
          "name": "",
          "type": "uint256"
        }
      ],
      "stateMutability": "view",
      "type": "function"
    },
    {
      "inputs": [],
      "name": "getContractBalance",
      "outputs": [
        {
          "internalType": "uint256",
          "name": "",
          "type": "uint256"
        }
      ],
      "stateMutability": "view",
      "type": "function"
    },
    {
      "inputs": [
        {
          "internalType": "address",
          "name": "claimant",
          "type": "address"
        }
      ],
      "name": "getNonce",
      "outputs": [
        {
          "internalType": "uint256",
          "name": "",
          "type": "uint256"
        }
      ],
      "stateMutability": "view",
      "type": "function"
    },
    {
      "inputs": [
        {
          "internalType": "address",
          "name": "claimant",
          "type": "address"
        }
      ],
      "name": "getTotalClaimed",
      "outputs": [
        {
          "internalType": "uint256",
          "name": "",
          "type": "uint256"
        }
      ],
      "stateMutability": "view",
      "type": "function"
    },
    {
      "inputs": [],
      "name": "maxClaimAmount",
      "outputs": [
        {
          "internalType": "uint256",
          "name": "",
          "type": "uint256"
        }
      ],
      "stateMutability": "view",
      "type": "function"
    },
    {
      "inputs": [],
      "name": "minClaimAmount",
      "outputs": [
        {
          "internalType": "uint256",
          "name": "",
          "type": "uint256"
        }
      ],
      "stateMutability": "view",
      "type": "function"
    },
    {
      "inputs": [],
      "name": "owner",
      "outputs": [
        {
          "internalType": "address",
          "name": "",
          "type": "address"
        }
      ],
      "stateMutability": "view",
      "type": "function"
    },
    {
      "inputs": [
        {
          "internalType": "uint256",
          "name": "_minAmount",
          "type": "uint256"
        },
        {
          "internalType": "uint256",
          "name": "_maxAmount",
          "type": "uint256"
        }
      ],
      "name": "setClaimRange",
      "outputs": [],
      "stateMutability": "nonpayable",
      "type": "function"
    },
    {
      "inputs": [
        {
          "internalType": "address",
          "name": "",
          "type": "address"
        }
      ],
      "name": "totalClaimed",
      "outputs": [
        {
          "internalType": "uint256",
          "name": "",
          "type": "uint256"
        }
      ],
      "stateMutability": "view",
      "type": "function"
    },
    {
      "inputs": [],
      "name": "withdraw",
      "outputs": [],
      "stateMutability": "nonpayable",
      "type": "function"
    },
    {
      "stateMutability": "payable",
      "type": "receive"
    }
  ],
  "bytecode": "0x6080604052678ac7230489e800006001556801158e460913d00000600255348015602857600080fd5b50336000806101000a81548173ffffffffffffffffffffffffffffffffffffffff021916908373ffffffffffffffffffffffffffffffffffffffff1602179055506116ad806100786000396000f3fe6080604052600436106100a05760003560e01c80636f9fb98a116100645780636f9fb98a1461018f5780638da5cb5b146101ba578063aac27103146101e5578063adc25bde14610222578063aeef64391461024d578063ef5d9ae814610278576100a7565b806326932aac146100ac5780632d0335ab146100d55780633ccfd60b14610112578063522bf1d4146101295780636548b7ae14610166576100a7565b366100a757005b600080fd5b3480156100b857600080fd5b506100d360048036038101906100ce9190610b77565b6102b5565b005b3480156100e157600080fd5b506100fc60048036038101906100f79190610c15565b610398565b6040516101099190610c51565b60405180910390f35b34801561011e57600080fd5b506101276103e1565b005b34801561013557600080fd5b50610150600480360381019061014b9190610c15565b610588565b60405161015d9190610c51565b60405180910390f35b34801561017257600080fd5b5061018d60048036038101906101889190610db2565b6105d1565b005b34801561019b57600080fd5b506101a46109be565b6040516101b19190610c51565b60405180910390f35b3480156101c657600080fd5b506101cf6109c6565b6040516101dc9190610e44565b60405180910390f35b3480156101f157600080fd5b5061020c60048036038101906102079190610c15565b6109ea565b6040516102199190610c51565b60405180910390f35b34801561022e57600080fd5b50610237610a02565b6040516102449190610c51565b60405180910390f35b34801561025957600080fd5b50610262610a08565b60405161026f9190610c51565b60405180910390f35b34801561028457600080fd5b5061029f600480360381019061029a9190610c15565b610a0e565b6040516102ac9190610c51565b60405180910390f35b60008054906101000a900473ffffffffffffffffffffffffffffffffffffffff1673ffffffffffffffffffffffffffffffffffffffff163373ffffffffffffffffffffffffffffffffffffffff1614610343576040517f08c379a000000000000000000000000000000000000000000000000000000000815260040161033a90610ebc565b60405180910390fd5b80821115610386576040517f08c379a000000000000000000000000000000000000000000000000000000000815260040161037d90610f4e565b60405180910390fd5b81600181905550806002819055505050565b6000600460008373ffffffffffffffffffffffffffffffffffffffff1673ffffffffffffffffffffffffffffffffffffffff168152602001908152602001600020549050919050565b60008054906101000a900473ffffffffffffffffffffffffffffffffffffffff1673ffffffffffffffffffffffffffffffffffffffff163373ffffffffffffffffffffffffffffffffffffffff161461046f576040517f08c379a000000000000000000000000000000000000000000000000000000000815260040161046690610fba565b60405180910390fd5b6000479050600081116104b7576040517f08c379a00000000000000000000000000000000000000000000000000000000081526004016104ae90611026565b60405180910390fd5b60008060009054906101000a900473ffffffffffffffffffffffffffffffffffffffff1673ffffffffffffffffffffffffffffffffffffffff16826040516104fe90611077565b60006040518083038185875af1925050503d806000811461053b576040519150601f19603f3d011682016040523d82523d6000602084013e610540565b606091505b5050905080610584576040517f08c379a000000000000000000000000000000000000000000000000000000000815260040161057b906110d8565b60405180910390fd5b5050565b6000600360008373ffffffffffffffffffffffffffffffffffffffff1673ffffffffffffffffffffffffffffffffffffffff168152602001908152602001600020549050919050565b600033905082421115610619576040517f08c379a000000000000000000000000000000000000000000000000000000000815260040161061090611144565b60405180910390fd5b83600460008373ffffffffffffffffffffffffffffffffffffffff1673ffffffffffffffffffffffffffffffffffffffff168152602001908152602001600020541461069a576040517f08c379a0000000000000000000000000000000000000000000000000000000008152600401610691906111b0565b60405180910390fd5b60015485101580156106ae57506002548511155b6106ed576040517f08c379a00000000000000000000000000000000000000000000000000000000081526004016106e49061121c565b60405180910390fd5b84471015610730576040517f08c379a000000000000000000000000000000000000000000000000000000000815260040161072790611288565b60405180910390fd5b6000818686863060405160200161074b959493929190611311565b604051602081830303815290604052805190602001209050600061076e82610a26565b9050600061077c8286610a56565b905060008054906101000a900473ffffffffffffffffffffffffffffffffffffffff1673ffffffffffffffffffffffffffffffffffffffff168173ffffffffffffffffffffffffffffffffffffffff161461080c576040517f08c379a0000000000000000000000000000000000000000000000000000000008152600401610803906113bc565b60405180910390fd5b600460008573ffffffffffffffffffffffffffffffffffffffff1673ffffffffffffffffffffffffffffffffffffffff168152602001908152602001600020600081548092919061085c9061140b565b919050555087600360008673ffffffffffffffffffffffffffffffffffffffff1673ffffffffffffffffffffffffffffffffffffffff16815260200190815260200160002060008282546108b09190611453565b9250508190555060008473ffffffffffffffffffffffffffffffffffffffff16896040516108dd90611077565b60006040518083038185875af1925050503d806000811461091a576040519150601f19603f3d011682016040523d82523d6000602084013e61091f565b606091505b5050905080610963576040517f08c379a000000000000000000000000000000000000000000000000000000000815260040161095a906114d3565b60405180910390fd5b8473ffffffffffffffffffffffffffffffffffffffff167f9923b4306c6c030f2bdfbf156517d5983b87e15b96176da122cd4f2effa4ba7b8a426040516109ab9291906114f3565b60405180910390a2505050505050505050565b600047905090565b60008054906101000a900473ffffffffffffffffffffffffffffffffffffffff1681565b60046020528060005260406000206000915090505481565b60015481565b60025481565b60036020528060005260406000206000915090505481565b600081604051602001610a39919061159e565b604051602081830303815290604052805190602001209050919050565b600080600080610a6585610ac5565b92509250925060018684848460405160008152602001604052604051610a8e94939291906115ef565b6020604051602081039080840390855afa158015610ab0573d6000803e3d6000fd5b50505060206040510351935050505092915050565b60008060006041845114610b0e576040517f08c379a0000000000000000000000000000000000000000000000000000000008152600401610b0590611680565b60405180910390fd5b6020840151915060408401519050606084015160001a92509193909250565b6000604051905090565b600080fd5b600080fd5b6000819050919050565b610b5481610b41565b8114610b5f57600080fd5b50565b600081359050610b7181610b4b565b92915050565b60008060408385031215610b8e57610b8d610b37565b5b6000610b9c85828601610b62565b9250506020610bad85828601610b62565b9150509250929050565b600073ffffffffffffffffffffffffffffffffffffffff82169050919050565b6000610be282610bb7565b9050919050565b610bf281610bd7565b8114610bfd57600080fd5b50565b600081359050610c0f81610be9565b92915050565b600060208284031215610c2b57610c2a610b37565b5b6000610c3984828501610c00565b91505092915050565b610c4b81610b41565b82525050565b6000602082019050610c666000830184610c42565b92915050565b600080fd5b600080fd5b6000601f19601f8301169050919050565b7f4e487b7100000000000000000000000000000000000000000000000000000000600052604160045260246000fd5b610cbf82610c76565b810181811067ffffffffffffffff82111715610cde57610cdd610c87565b5b80604052505050565b6000610cf1610b2d565b9050610cfd8282610cb6565b919050565b600067ffffffffffffffff821115610d1d57610d1c610c87565b5b610d2682610c76565b9050602081019050919050565b82818337600083830152505050565b6000610d55610d5084610d02565b610ce7565b905082815260208101848484011115610d7157610d70610c71565b5b610d7c848285610d33565b509392505050565b600082601f830112610d9957610d98610c6c565b5b8135610da9848260208601610d42565b91505092915050565b60008060008060808587031215610dcc57610dcb610b37565b5b6000610dda87828801610b62565b9450506020610deb87828801610b62565b9350506040610dfc87828801610b62565b925050606085013567ffffffffffffffff811115610e1d57610e1c610b3c565b5b610e2987828801610d84565b91505092959194509250565b610e3e81610bd7565b82525050565b6000602082019050610e596000830184610e35565b92915050565b600082825260208201905092915050565b7f4f6e6c79206f776e65722063616e2073657420636c61696d2072616e67650000600082015250565b6000610ea6601e83610e5f565b9150610eb182610e70565b602082019050919050565b60006020820190508181036000830152610ed581610e99565b9050919050565b7f4d696e20616d6f756e74206d757374206265206c657373207468616e206f722060008201527f657175616c20746f206d617820616d6f756e7400000000000000000000000000602082015250565b6000610f38603383610e5f565b9150610f4382610edc565b604082019050919050565b60006020820190508181036000830152610f6781610f2b565b9050919050565b7f4f6e6c79206f776e65722063616e207769746864726177000000000000000000600082015250565b6000610fa4601783610e5f565b9150610faf82610f6e565b602082019050919050565b60006020820190508181036000830152610fd381610f97565b9050919050565b7f4e6f2066756e647320746f207769746864726177000000000000000000000000600082015250565b6000611010601483610e5f565b915061101b82610fda565b602082019050919050565b6000602082019050818103600083015261103f81611003565b9050919050565b600081905092915050565b50565b6000611061600083611046565b915061106c82611051565b600082019050919050565b600061108282611054565b9150819050919050565b7f4661696c656420746f2077697468647261770000000000000000000000000000600082015250565b60006110c2601283610e5f565b91506110cd8261108c565b602082019050919050565b600060208201905081810360008301526110f1816110b5565b9050919050565b7f5369676e61747572652065787069726564000000000000000000000000000000600082015250565b600061112e601183610e5f565b9150611139826110f8565b602082019050919050565b6000602082019050818103600083015261115d81611121565b9050919050565b7f496e76616c6964206f722075736564206e6f6e63650000000000000000000000600082015250565b600061119a601583610e5f565b91506111a582611164565b602082019050919050565b600060208201905081810360008301526111c98161118d565b9050919050565b7f416d6f756e74206f7574206f662072616e676500000000000000000000000000600082015250565b6000611206601383610e5f565b9150611211826111d0565b602082019050919050565b60006020820190508181036000830152611235816111f9565b9050919050565b7f496e73756666696369656e7420636f6e74726163742062616c616e6365000000600082015250565b6000611272601d83610e5f565b915061127d8261123c565b602082019050919050565b600060208201905081810360008301526112a181611265565b9050919050565b60008160601b9050919050565b60006112c0826112a8565b9050919050565b60006112d2826112b5565b9050919050565b6112ea6112e582610bd7565b6112c7565b82525050565b6000819050919050565b61130b61130682610b41565b6112f0565b82525050565b600061131d82886112d9565b60148201915061132d82876112fa565b60208201915061133d82866112fa565b60208201915061134d82856112fa565b60208201915061135d82846112d9565b6014820191508190509695505050505050565b7f496e76616c6964207369676e6174757265000000000000000000000000000000600082015250565b60006113a6601183610e5f565b91506113b182611370565b602082019050919050565b600060208201905081810360008301526113d581611399565b9050919050565b7f4e487b7100000000000000000000000000000000000000000000000000000000600052601160045260246000fd5b600061141682610b41565b91507fffffffffffffffffffffffffffffffffffffffffffffffffffffffffffffffff8203611448576114476113dc565b5b600182019050919050565b600061145e82610b41565b915061146983610b41565b9250828201905080821115611481576114806113dc565b5b92915050565b7f4661696c656420746f2073656e64204d4f4e0000000000000000000000000000600082015250565b60006114bd601283610e5f565b91506114c882611487565b602082019050919050565b600060208201905081810360008301526114ec816114b0565b9050919050565b60006040820190506115086000830185610c42565b6115156020830184610c42565b9392505050565b600081905092915050565b7f19457468657265756d205369676e6564204d6573736167653a0a333200000000600082015250565b600061155d601c8361151c565b915061156882611527565b601c82019050919050565b6000819050919050565b6000819050919050565b61159861159382611573565b61157d565b82525050565b60006115a982611550565b91506115b58284611587565b60208201915081905092915050565b6115cd81611573565b82525050565b600060ff82169050919050565b6115e9816115d3565b82525050565b600060808201905061160460008301876115c4565b61161160208301866115e0565b61161e60408301856115c4565b61162b60608301846115c4565b95945050505050565b7f496e76616c6964207369676e6174757265206c656e6774680000000000000000600082015250565b600061166a601883610e5f565b915061167582611634565b602082019050919050565b600060208201905081810360008301526116998161165d565b905091905056fea164736f6c634300081c000a",
  "linkReferences": {},
  "deployedLinkReferences": {}
}