{
  "contracts/MonadTokenDistribute.sol": {
    "MonadTokenDistribute": {
      "abi": [
        {
          "inputs": [],
          "stateMutability": "nonpayable",
          "type": "constructor"
        },
        {
          "anonymous": false,
          "inputs": [
            {
              "indexed": true,
              "internalType": "address",
              "name": "claimant",
              "type": "address"
            },
            {
              "indexed": false,
              "internalType": "uint256",
              "name": "amount",
              "type": "uint256"
            },
            {
              "indexed": false,
              "internalType": "uint256",
              "name": "timestamp",
              "type": "uint256"
            }
          ],
          "name": "TokensClaimed",
          "type": "event"
        },
        {
          "inputs": [
            {
              "internalType": "uint256",
              "name": "amount",
              "type": "uint256"
            },
            {
              "internalType": "uint256",
              "name": "nonce",
              "type": "uint256"
            },
            {
              "internalType": "uint256",
              "name": "deadline",
              "type": "uint256"
            },
            {
              "internalType": "bytes",
              "name": "signature",
              "type": "bytes"
            }
          ],
          "name": "claim",
          "outputs": [],
          "stateMutability": "nonpayable",
          "type": "function"
        },
        {
          "inputs": [
            {
              "internalType": "address",
              "name": "",
              "type": "address"
            }
          ],
          "name": "claimedNonce",
          "outputs": [
            {
              "internalType": "uint256",
              "name": "",
              "type": "uint256"
            }
          ],
          "stateMutability": "view",
          "type": "function"
        },
        {
          "inputs": [],
          "name": "getContractBalance",
          "outputs": [
            {
              "internalType": "uint256",
              "name": "",
              "type": "uint256"
            }
          ],
          "stateMutability": "view",
          "type": "function"
        },
        {
          "inputs": [
            {
              "internalType": "address",
              "name": "claimant",
              "type": "address"
            }
          ],
          "name": "getNonce",
          "outputs": [
            {
              "internalType": "uint256",
              "name": "",
              "type": "uint256"
            }
          ],
          "stateMutability": "view",
          "type": "function"
        },
        {
          "inputs": [
            {
              "internalType": "address",
              "name": "claimant",
              "type": "address"
            }
          ],
          "name": "getTotalClaimed",
          "outputs": [
            {
              "internalType": "uint256",
              "name": "",
              "type": "uint256"
            }
          ],
          "stateMutability": "view",
          "type": "function"
        },
        {
          "inputs": [],
          "name": "maxClaimAmount",
          "outputs": [
            {
              "internalType": "uint256",
              "name": "",
              "type": "uint256"
            }
          ],
          "stateMutability": "view",
          "type": "function"
        },
        {
          "inputs": [],
          "name": "minClaimAmount",
          "outputs": [
            {
              "internalType": "uint256",
              "name": "",
              "type": "uint256"
            }
          ],
          "stateMutability": "view",
          "type": "function"
        },
        {
          "inputs": [],
          "name": "owner",
          "outputs": [
            {
              "internalType": "address",
              "name": "",
              "type": "address"
            }
          ],
          "stateMutability": "view",
          "type": "function"
        },
        {
          "inputs": [
            {
              "internalType": "uint256",
              "name": "_minAmount",
              "type": "uint256"
            },
            {
              "internalType": "uint256",
              "name": "_maxAmount",
              "type": "uint256"
            }
          ],
          "name": "setClaimRange",
          "outputs": [],
          "stateMutability": "nonpayable",
          "type": "function"
        },
        {
          "inputs": [
            {
              "internalType": "address",
              "name": "",
              "type": "address"
            }
          ],
          "name": "totalClaimed",
          "outputs": [
            {
              "internalType": "uint256",
              "name": "",
              "type": "uint256"
            }
          ],
          "stateMutability": "view",
          "type": "function"
        },
        {
          "inputs": [],
          "name": "withdraw",
          "outputs": [],
          "stateMutability": "nonpayable",
          "type": "function"
        },
        {
          "stateMutability": "payable",
          "type": "receive"
        }
      ],
      "evm": {
        "bytecode": {
          "linkReferences": {},
          "object": "6080604052678ac7230489e800006001556801158e460913d00000600255348015602857600080fd5b50336000806101000a81548173ffffffffffffffffffffffffffffffffffffffff021916908373ffffffffffffffffffffffffffffffffffffffff1602179055506116ad806100786000396000f3fe6080604052600436106100a05760003560e01c80636f9fb98a116100645780636f9fb98a1461018f5780638da5cb5b146101ba578063aac27103146101e5578063adc25bde14610222578063aeef64391461024d578063ef5d9ae814610278576100a7565b806326932aac146100ac5780632d0335ab146100d55780633ccfd60b14610112578063522bf1d4146101295780636548b7ae14610166576100a7565b366100a757005b600080fd5b3480156100b857600080fd5b506100d360048036038101906100ce9190610b77565b6102b5565b005b3480156100e157600080fd5b506100fc60048036038101906100f79190610c15565b610398565b6040516101099190610c51565b60405180910390f35b34801561011e57600080fd5b506101276103e1565b005b34801561013557600080fd5b50610150600480360381019061014b9190610c15565b610588565b60405161015d9190610c51565b60405180910390f35b34801561017257600080fd5b5061018d60048036038101906101889190610db2565b6105d1565b005b34801561019b57600080fd5b506101a46109be565b6040516101b19190610c51565b60405180910390f35b3480156101c657600080fd5b506101cf6109c6565b6040516101dc9190610e44565b60405180910390f35b3480156101f157600080fd5b5061020c60048036038101906102079190610c15565b6109ea565b6040516102199190610c51565b60405180910390f35b34801561022e57600080fd5b50610237610a02565b6040516102449190610c51565b60405180910390f35b34801561025957600080fd5b50610262610a08565b60405161026f9190610c51565b60405180910390f35b34801561028457600080fd5b5061029f600480360381019061029a9190610c15565b610a0e565b6040516102ac9190610c51565b60405180910390f35b60008054906101000a900473ffffffffffffffffffffffffffffffffffffffff1673ffffffffffffffffffffffffffffffffffffffff163373ffffffffffffffffffffffffffffffffffffffff1614610343576040517f08c379a000000000000000000000000000000000000000000000000000000000815260040161033a90610ebc565b60405180910390fd5b80821115610386576040517f08c379a000000000000000000000000000000000000000000000000000000000815260040161037d90610f4e565b60405180910390fd5b81600181905550806002819055505050565b6000600460008373ffffffffffffffffffffffffffffffffffffffff1673ffffffffffffffffffffffffffffffffffffffff168152602001908152602001600020549050919050565b60008054906101000a900473ffffffffffffffffffffffffffffffffffffffff1673ffffffffffffffffffffffffffffffffffffffff163373ffffffffffffffffffffffffffffffffffffffff161461046f576040517f08c379a000000000000000000000000000000000000000000000000000000000815260040161046690610fba565b60405180910390fd5b6000479050600081116104b7576040517f08c379a00000000000000000000000000000000000000000000000000000000081526004016104ae90611026565b60405180910390fd5b60008060009054906101000a900473ffffffffffffffffffffffffffffffffffffffff1673ffffffffffffffffffffffffffffffffffffffff16826040516104fe90611077565b60006040518083038185875af1925050503d806000811461053b576040519150601f19603f3d011682016040523d82523d6000602084013e610540565b606091505b5050905080610584576040517f08c379a000000000000000000000000000000000000000000000000000000000815260040161057b906110d8565b60405180910390fd5b5050565b6000600360008373ffffffffffffffffffffffffffffffffffffffff1673ffffffffffffffffffffffffffffffffffffffff168152602001908152602001600020549050919050565b600033905082421115610619576040517f08c379a000000000000000000000000000000000000000000000000000000000815260040161061090611144565b60405180910390fd5b83600460008373ffffffffffffffffffffffffffffffffffffffff1673ffffffffffffffffffffffffffffffffffffffff168152602001908152602001600020541461069a576040517f08c379a0000000000000000000000000000000000000000000000000000000008152600401610691906111b0565b60405180910390fd5b60015485101580156106ae57506002548511155b6106ed576040517f08c379a00000000000000000000000000000000000000000000000000000000081526004016106e49061121c565b60405180910390fd5b84471015610730576040517f08c379a000000000000000000000000000000000000000000000000000000000815260040161072790611288565b60405180910390fd5b6000818686863060405160200161074b959493929190611311565b604051602081830303815290604052805190602001209050600061076e82610a26565b9050600061077c8286610a56565b905060008054906101000a900473ffffffffffffffffffffffffffffffffffffffff1673ffffffffffffffffffffffffffffffffffffffff168173ffffffffffffffffffffffffffffffffffffffff161461080c576040517f08c379a0000000000000000000000000000000000000000000000000000000008152600401610803906113bc565b60405180910390fd5b600460008573ffffffffffffffffffffffffffffffffffffffff1673ffffffffffffffffffffffffffffffffffffffff168152602001908152602001600020600081548092919061085c9061140b565b919050555087600360008673ffffffffffffffffffffffffffffffffffffffff1673ffffffffffffffffffffffffffffffffffffffff16815260200190815260200160002060008282546108b09190611453565b9250508190555060008473ffffffffffffffffffffffffffffffffffffffff16896040516108dd90611077565b60006040518083038185875af1925050503d806000811461091a576040519150601f19603f3d011682016040523d82523d6000602084013e61091f565b606091505b5050905080610963576040517f08c379a000000000000000000000000000000000000000000000000000000000815260040161095a906114d3565b60405180910390fd5b8473ffffffffffffffffffffffffffffffffffffffff167f9923b4306c6c030f2bdfbf156517d5983b87e15b96176da122cd4f2effa4ba7b8a426040516109ab9291906114f3565b60405180910390a2505050505050505050565b600047905090565b60008054906101000a900473ffffffffffffffffffffffffffffffffffffffff1681565b60046020528060005260406000206000915090505481565b60015481565b60025481565b60036020528060005260406000206000915090505481565b600081604051602001610a39919061159e565b604051602081830303815290604052805190602001209050919050565b600080600080610a6585610ac5565b92509250925060018684848460405160008152602001604052604051610a8e94939291906115ef565b6020604051602081039080840390855afa158015610ab0573d6000803e3d6000fd5b50505060206040510351935050505092915050565b60008060006041845114610b0e576040517f08c379a0000000000000000000000000000000000000000000000000000000008152600401610b0590611680565b60405180910390fd5b6020840151915060408401519050606084015160001a92509193909250565b6000604051905090565b600080fd5b600080fd5b6000819050919050565b610b5481610b41565b8114610b5f57600080fd5b50565b600081359050610b7181610b4b565b92915050565b60008060408385031215610b8e57610b8d610b37565b5b6000610b9c85828601610b62565b9250506020610bad85828601610b62565b9150509250929050565b600073ffffffffffffffffffffffffffffffffffffffff82169050919050565b6000610be282610bb7565b9050919050565b610bf281610bd7565b8114610bfd57600080fd5b50565b600081359050610c0f81610be9565b92915050565b600060208284031215610c2b57610c2a610b37565b5b6000610c3984828501610c00565b91505092915050565b610c4b81610b41565b82525050565b6000602082019050610c666000830184610c42565b92915050565b600080fd5b600080fd5b6000601f19601f8301169050919050565b7f4e487b7100000000000000000000000000000000000000000000000000000000600052604160045260246000fd5b610cbf82610c76565b810181811067ffffffffffffffff82111715610cde57610cdd610c87565b5b80604052505050565b6000610cf1610b2d565b9050610cfd8282610cb6565b919050565b600067ffffffffffffffff821115610d1d57610d1c610c87565b5b610d2682610c76565b9050602081019050919050565b82818337600083830152505050565b6000610d55610d5084610d02565b610ce7565b905082815260208101848484011115610d7157610d70610c71565b5b610d7c848285610d33565b509392505050565b600082601f830112610d9957610d98610c6c565b5b8135610da9848260208601610d42565b91505092915050565b60008060008060808587031215610dcc57610dcb610b37565b5b6000610dda87828801610b62565b9450506020610deb87828801610b62565b9350506040610dfc87828801610b62565b925050606085013567ffffffffffffffff811115610e1d57610e1c610b3c565b5b610e2987828801610d84565b91505092959194509250565b610e3e81610bd7565b82525050565b6000602082019050610e596000830184610e35565b92915050565b600082825260208201905092915050565b7f4f6e6c79206f776e65722063616e2073657420636c61696d2072616e67650000600082015250565b6000610ea6601e83610e5f565b9150610eb182610e70565b602082019050919050565b60006020820190508181036000830152610ed581610e99565b9050919050565b7f4d696e20616d6f756e74206d757374206265206c657373207468616e206f722060008201527f657175616c20746f206d617820616d6f756e7400000000000000000000000000602082015250565b6000610f38603383610e5f565b9150610f4382610edc565b604082019050919050565b60006020820190508181036000830152610f6781610f2b565b9050919050565b7f4f6e6c79206f776e65722063616e207769746864726177000000000000000000600082015250565b6000610fa4601783610e5f565b9150610faf82610f6e565b602082019050919050565b60006020820190508181036000830152610fd381610f97565b9050919050565b7f4e6f2066756e647320746f207769746864726177000000000000000000000000600082015250565b6000611010601483610e5f565b915061101b82610fda565b602082019050919050565b6000602082019050818103600083015261103f81611003565b9050919050565b600081905092915050565b50565b6000611061600083611046565b915061106c82611051565b600082019050919050565b600061108282611054565b9150819050919050565b7f4661696c656420746f2077697468647261770000000000000000000000000000600082015250565b60006110c2601283610e5f565b91506110cd8261108c565b602082019050919050565b600060208201905081810360008301526110f1816110b5565b9050919050565b7f5369676e61747572652065787069726564000000000000000000000000000000600082015250565b600061112e601183610e5f565b9150611139826110f8565b602082019050919050565b6000602082019050818103600083015261115d81611121565b9050919050565b7f496e76616c6964206f722075736564206e6f6e63650000000000000000000000600082015250565b600061119a601583610e5f565b91506111a582611164565b602082019050919050565b600060208201905081810360008301526111c98161118d565b9050919050565b7f416d6f756e74206f7574206f662072616e676500000000000000000000000000600082015250565b6000611206601383610e5f565b9150611211826111d0565b602082019050919050565b60006020820190508181036000830152611235816111f9565b9050919050565b7f496e73756666696369656e7420636f6e74726163742062616c616e6365000000600082015250565b6000611272601d83610e5f565b915061127d8261123c565b602082019050919050565b600060208201905081810360008301526112a181611265565b9050919050565b60008160601b9050919050565b60006112c0826112a8565b9050919050565b60006112d2826112b5565b9050919050565b6112ea6112e582610bd7565b6112c7565b82525050565b6000819050919050565b61130b61130682610b41565b6112f0565b82525050565b600061131d82886112d9565b60148201915061132d82876112fa565b60208201915061133d82866112fa565b60208201915061134d82856112fa565b60208201915061135d82846112d9565b6014820191508190509695505050505050565b7f496e76616c6964207369676e6174757265000000000000000000000000000000600082015250565b60006113a6601183610e5f565b91506113b182611370565b602082019050919050565b600060208201905081810360008301526113d581611399565b9050919050565b7f4e487b7100000000000000000000000000000000000000000000000000000000600052601160045260246000fd5b600061141682610b41565b91507fffffffffffffffffffffffffffffffffffffffffffffffffffffffffffffffff8203611448576114476113dc565b5b600182019050919050565b600061145e82610b41565b915061146983610b41565b9250828201905080821115611481576114806113dc565b5b92915050565b7f4661696c656420746f2073656e64204d4f4e0000000000000000000000000000600082015250565b60006114bd601283610e5f565b91506114c882611487565b602082019050919050565b600060208201905081810360008301526114ec816114b0565b9050919050565b60006040820190506115086000830185610c42565b6115156020830184610c42565b9392505050565b600081905092915050565b7f19457468657265756d205369676e6564204d6573736167653a0a333200000000600082015250565b600061155d601c8361151c565b915061156882611527565b601c82019050919050565b6000819050919050565b6000819050919050565b61159861159382611573565b61157d565b82525050565b60006115a982611550565b91506115b58284611587565b60208201915081905092915050565b6115cd81611573565b82525050565b600060ff82169050919050565b6115e9816115d3565b82525050565b600060808201905061160460008301876115c4565b61161160208301866115e0565b61161e60408301856115c4565b61162b60608301846115c4565b95945050505050565b7f496e76616c6964207369676e6174757265206c656e6774680000000000000000600082015250565b600061166a601883610e5f565b915061167582611634565b602082019050919050565b600060208201905081810360008301526116998161165d565b905091905056fea164736f6c634300081c000a",
          "opcodes": "PUSH1 0x80 PUSH1 0x40 MSTORE PUSH8 0x8AC7230489E80000 PUSH1 0x1 SSTORE PUSH9 0x1158E460913D00000 PUSH1 0x2 SSTORE CALLVALUE DUP1 ISZERO PUSH1 0x28 JUMPI PUSH1 0x0 DUP1 REVERT JUMPDEST POP CALLER PUSH1 0x0 DUP1 PUSH2 0x100 EXP DUP2 SLOAD DUP2 PUSH20 0xFFFFFFFFFFFFFFFFFFFFFFFFFFFFFFFFFFFFFFFF MUL NOT AND SWAP1 DUP4 PUSH20 0xFFFFFFFFFFFFFFFFFFFFFFFFFFFFFFFFFFFFFFFF AND MUL OR SWAP1 SSTORE POP PUSH2 0x16AD DUP1 PUSH2 0x78 PUSH1 0x0 CODECOPY PUSH1 0x0 RETURN INVALID PUSH1 0x80 PUSH1 0x40 MSTORE PUSH1 0x4 CALLDATASIZE LT PUSH2 0xA0 JUMPI PUSH1 0x0 CALLDATALOAD PUSH1 0xE0 SHR DUP1 PUSH4 0x6F9FB98A GT PUSH2 0x64 JUMPI DUP1 PUSH4 0x6F9FB98A EQ PUSH2 0x18F JUMPI DUP1 PUSH4 0x8DA5CB5B EQ PUSH2 0x1BA JUMPI DUP1 PUSH4 0xAAC27103 EQ PUSH2 0x1E5 JUMPI DUP1 PUSH4 0xADC25BDE EQ PUSH2 0x222 JUMPI DUP1 PUSH4 0xAEEF6439 EQ PUSH2 0x24D JUMPI DUP1 PUSH4 0xEF5D9AE8 EQ PUSH2 0x278 JUMPI PUSH2 0xA7 JUMP JUMPDEST DUP1 PUSH4 0x26932AAC EQ PUSH2 0xAC JUMPI DUP1 PUSH4 0x2D0335AB EQ PUSH2 0xD5 JUMPI DUP1 PUSH4 0x3CCFD60B EQ PUSH2 0x112 JUMPI DUP1 PUSH4 0x522BF1D4 EQ PUSH2 0x129 JUMPI DUP1 PUSH4 0x6548B7AE EQ PUSH2 0x166 JUMPI PUSH2 0xA7 JUMP JUMPDEST CALLDATASIZE PUSH2 0xA7 JUMPI STOP JUMPDEST PUSH1 0x0 DUP1 REVERT JUMPDEST CALLVALUE DUP1 ISZERO PUSH2 0xB8 JUMPI PUSH1 0x0 DUP1 REVERT JUMPDEST POP PUSH2 0xD3 PUSH1 0x4 DUP1 CALLDATASIZE SUB DUP2 ADD SWAP1 PUSH2 0xCE SWAP2 SWAP1 PUSH2 0xB77 JUMP JUMPDEST PUSH2 0x2B5 JUMP JUMPDEST STOP JUMPDEST CALLVALUE DUP1 ISZERO PUSH2 0xE1 JUMPI PUSH1 0x0 DUP1 REVERT JUMPDEST POP PUSH2 0xFC PUSH1 0x4 DUP1 CALLDATASIZE SUB DUP2 ADD SWAP1 PUSH2 0xF7 SWAP2 SWAP1 PUSH2 0xC15 JUMP JUMPDEST PUSH2 0x398 JUMP JUMPDEST PUSH1 0x40 MLOAD PUSH2 0x109 SWAP2 SWAP1 PUSH2 0xC51 JUMP JUMPDEST PUSH1 0x40 MLOAD DUP1 SWAP2 SUB SWAP1 RETURN JUMPDEST CALLVALUE DUP1 ISZERO PUSH2 0x11E JUMPI PUSH1 0x0 DUP1 REVERT JUMPDEST POP PUSH2 0x127 PUSH2 0x3E1 JUMP JUMPDEST STOP JUMPDEST CALLVALUE DUP1 ISZERO PUSH2 0x135 JUMPI PUSH1 0x0 DUP1 REVERT JUMPDEST POP PUSH2 0x150 PUSH1 0x4 DUP1 CALLDATASIZE SUB DUP2 ADD SWAP1 PUSH2 0x14B SWAP2 SWAP1 PUSH2 0xC15 JUMP JUMPDEST PUSH2 0x588 JUMP JUMPDEST PUSH1 0x40 MLOAD PUSH2 0x15D SWAP2 SWAP1 PUSH2 0xC51 JUMP JUMPDEST PUSH1 0x40 MLOAD DUP1 SWAP2 SUB SWAP1 RETURN JUMPDEST CALLVALUE DUP1 ISZERO PUSH2 0x172 JUMPI PUSH1 0x0 DUP1 REVERT JUMPDEST POP PUSH2 0x18D PUSH1 0x4 DUP1 CALLDATASIZE SUB DUP2 ADD SWAP1 PUSH2 0x188 SWAP2 SWAP1 PUSH2 0xDB2 JUMP JUMPDEST PUSH2 0x5D1 JUMP JUMPDEST STOP JUMPDEST CALLVALUE DUP1 ISZERO PUSH2 0x19B JUMPI PUSH1 0x0 DUP1 REVERT JUMPDEST POP PUSH2 0x1A4 PUSH2 0x9BE JUMP JUMPDEST PUSH1 0x40 MLOAD PUSH2 0x1B1 SWAP2 SWAP1 PUSH2 0xC51 JUMP JUMPDEST PUSH1 0x40 MLOAD DUP1 SWAP2 SUB SWAP1 RETURN JUMPDEST CALLVALUE DUP1 ISZERO PUSH2 0x1C6 JUMPI PUSH1 0x0 DUP1 REVERT JUMPDEST POP PUSH2 0x1CF PUSH2 0x9C6 JUMP JUMPDEST PUSH1 0x40 MLOAD PUSH2 0x1DC SWAP2 SWAP1 PUSH2 0xE44 JUMP JUMPDEST PUSH1 0x40 MLOAD DUP1 SWAP2 SUB SWAP1 RETURN JUMPDEST CALLVALUE DUP1 ISZERO PUSH2 0x1F1 JUMPI PUSH1 0x0 DUP1 REVERT JUMPDEST POP PUSH2 0x20C PUSH1 0x4 DUP1 CALLDATASIZE SUB DUP2 ADD SWAP1 PUSH2 0x207 SWAP2 SWAP1 PUSH2 0xC15 JUMP JUMPDEST PUSH2 0x9EA JUMP JUMPDEST PUSH1 0x40 MLOAD PUSH2 0x219 SWAP2 SWAP1 PUSH2 0xC51 JUMP JUMPDEST PUSH1 0x40 MLOAD DUP1 SWAP2 SUB SWAP1 RETURN JUMPDEST CALLVALUE DUP1 ISZERO PUSH2 0x22E JUMPI PUSH1 0x0 DUP1 REVERT JUMPDEST POP PUSH2 0x237 PUSH2 0xA02 JUMP JUMPDEST PUSH1 0x40 MLOAD PUSH2 0x244 SWAP2 SWAP1 PUSH2 0xC51 JUMP JUMPDEST PUSH1 0x40 MLOAD DUP1 SWAP2 SUB SWAP1 RETURN JUMPDEST CALLVALUE DUP1 ISZERO PUSH2 0x259 JUMPI PUSH1 0x0 DUP1 REVERT JUMPDEST POP PUSH2 0x262 PUSH2 0xA08 JUMP JUMPDEST PUSH1 0x40 MLOAD PUSH2 0x26F SWAP2 SWAP1 PUSH2 0xC51 JUMP JUMPDEST PUSH1 0x40 MLOAD DUP1 SWAP2 SUB SWAP1 RETURN JUMPDEST CALLVALUE DUP1 ISZERO PUSH2 0x284 JUMPI PUSH1 0x0 DUP1 REVERT JUMPDEST POP PUSH2 0x29F PUSH1 0x4 DUP1 CALLDATASIZE SUB DUP2 ADD SWAP1 PUSH2 0x29A SWAP2 SWAP1 PUSH2 0xC15 JUMP JUMPDEST PUSH2 0xA0E JUMP JUMPDEST PUSH1 0x40 MLOAD PUSH2 0x2AC SWAP2 SWAP1 PUSH2 0xC51 JUMP JUMPDEST PUSH1 0x40 MLOAD DUP1 SWAP2 SUB SWAP1 RETURN JUMPDEST PUSH1 0x0 DUP1 SLOAD SWAP1 PUSH2 0x100 EXP SWAP1 DIV PUSH20 0xFFFFFFFFFFFFFFFFFFFFFFFFFFFFFFFFFFFFFFFF AND PUSH20 0xFFFFFFFFFFFFFFFFFFFFFFFFFFFFFFFFFFFFFFFF AND CALLER PUSH20 0xFFFFFFFFFFFFFFFFFFFFFFFFFFFFFFFFFFFFFFFF AND EQ PUSH2 0x343 JUMPI PUSH1 0x40 MLOAD PUSH32 0x8C379A000000000000000000000000000000000000000000000000000000000 DUP2 MSTORE PUSH1 0x4 ADD PUSH2 0x33A SWAP1 PUSH2 0xEBC JUMP JUMPDEST PUSH1 0x40 MLOAD DUP1 SWAP2 SUB SWAP1 REVERT JUMPDEST DUP1 DUP3 GT ISZERO PUSH2 0x386 JUMPI PUSH1 0x40 MLOAD PUSH32 0x8C379A000000000000000000000000000000000000000000000000000000000 DUP2 MSTORE PUSH1 0x4 ADD PUSH2 0x37D SWAP1 PUSH2 0xF4E JUMP JUMPDEST PUSH1 0x40 MLOAD DUP1 SWAP2 SUB SWAP1 REVERT JUMPDEST DUP2 PUSH1 0x1 DUP2 SWAP1 SSTORE POP DUP1 PUSH1 0x2 DUP2 SWAP1 SSTORE POP POP POP JUMP JUMPDEST PUSH1 0x0 PUSH1 0x4 PUSH1 0x0 DUP4 PUSH20 0xFFFFFFFFFFFFFFFFFFFFFFFFFFFFFFFFFFFFFFFF AND PUSH20 0xFFFFFFFFFFFFFFFFFFFFFFFFFFFFFFFFFFFFFFFF AND DUP2 MSTORE PUSH1 0x20 ADD SWAP1 DUP2 MSTORE PUSH1 0x20 ADD PUSH1 0x0 KECCAK256 SLOAD SWAP1 POP SWAP2 SWAP1 POP JUMP JUMPDEST PUSH1 0x0 DUP1 SLOAD SWAP1 PUSH2 0x100 EXP SWAP1 DIV PUSH20 0xFFFFFFFFFFFFFFFFFFFFFFFFFFFFFFFFFFFFFFFF AND PUSH20 0xFFFFFFFFFFFFFFFFFFFFFFFFFFFFFFFFFFFFFFFF AND CALLER PUSH20 0xFFFFFFFFFFFFFFFFFFFFFFFFFFFFFFFFFFFFFFFF AND EQ PUSH2 0x46F JUMPI PUSH1 0x40 MLOAD PUSH32 0x8C379A000000000000000000000000000000000000000000000000000000000 DUP2 MSTORE PUSH1 0x4 ADD PUSH2 0x466 SWAP1 PUSH2 0xFBA JUMP JUMPDEST PUSH1 0x40 MLOAD DUP1 SWAP2 SUB SWAP1 REVERT JUMPDEST PUSH1 0x0 SELFBALANCE SWAP1 POP PUSH1 0x0 DUP2 GT PUSH2 0x4B7 JUMPI PUSH1 0x40 MLOAD PUSH32 0x8C379A000000000000000000000000000000000000000000000000000000000 DUP2 MSTORE PUSH1 0x4 ADD PUSH2 0x4AE SWAP1 PUSH2 0x1026 JUMP JUMPDEST PUSH1 0x40 MLOAD DUP1 SWAP2 SUB SWAP1 REVERT JUMPDEST PUSH1 0x0 DUP1 PUSH1 0x0 SWAP1 SLOAD SWAP1 PUSH2 0x100 EXP SWAP1 DIV PUSH20 0xFFFFFFFFFFFFFFFFFFFFFFFFFFFFFFFFFFFFFFFF AND PUSH20 0xFFFFFFFFFFFFFFFFFFFFFFFFFFFFFFFFFFFFFFFF AND DUP3 PUSH1 0x40 MLOAD PUSH2 0x4FE SWAP1 PUSH2 0x1077 JUMP JUMPDEST PUSH1 0x0 PUSH1 0x40 MLOAD DUP1 DUP4 SUB DUP2 DUP6 DUP8 GAS CALL SWAP3 POP POP POP RETURNDATASIZE DUP1 PUSH1 0x0 DUP2 EQ PUSH2 0x53B JUMPI PUSH1 0x40 MLOAD SWAP2 POP PUSH1 0x1F NOT PUSH1 0x3F RETURNDATASIZE ADD AND DUP3 ADD PUSH1 0x40 MSTORE RETURNDATASIZE DUP3 MSTORE RETURNDATASIZE PUSH1 0x0 PUSH1 0x20 DUP5 ADD RETURNDATACOPY PUSH2 0x540 JUMP JUMPDEST PUSH1 0x60 SWAP2 POP JUMPDEST POP POP SWAP1 POP DUP1 PUSH2 0x584 JUMPI PUSH1 0x40 MLOAD PUSH32 0x8C379A000000000000000000000000000000000000000000000000000000000 DUP2 MSTORE PUSH1 0x4 ADD PUSH2 0x57B SWAP1 PUSH2 0x10D8 JUMP JUMPDEST PUSH1 0x40 MLOAD DUP1 SWAP2 SUB SWAP1 REVERT JUMPDEST POP POP JUMP JUMPDEST PUSH1 0x0 PUSH1 0x3 PUSH1 0x0 DUP4 PUSH20 0xFFFFFFFFFFFFFFFFFFFFFFFFFFFFFFFFFFFFFFFF AND PUSH20 0xFFFFFFFFFFFFFFFFFFFFFFFFFFFFFFFFFFFFFFFF AND DUP2 MSTORE PUSH1 0x20 ADD SWAP1 DUP2 MSTORE PUSH1 0x20 ADD PUSH1 0x0 KECCAK256 SLOAD SWAP1 POP SWAP2 SWAP1 POP JUMP JUMPDEST PUSH1 0x0 CALLER SWAP1 POP DUP3 TIMESTAMP GT ISZERO PUSH2 0x619 JUMPI PUSH1 0x40 MLOAD PUSH32 0x8C379A000000000000000000000000000000000000000000000000000000000 DUP2 MSTORE PUSH1 0x4 ADD PUSH2 0x610 SWAP1 PUSH2 0x1144 JUMP JUMPDEST PUSH1 0x40 MLOAD DUP1 SWAP2 SUB SWAP1 REVERT JUMPDEST DUP4 PUSH1 0x4 PUSH1 0x0 DUP4 PUSH20 0xFFFFFFFFFFFFFFFFFFFFFFFFFFFFFFFFFFFFFFFF AND PUSH20 0xFFFFFFFFFFFFFFFFFFFFFFFFFFFFFFFFFFFFFFFF AND DUP2 MSTORE PUSH1 0x20 ADD SWAP1 DUP2 MSTORE PUSH1 0x20 ADD PUSH1 0x0 KECCAK256 SLOAD EQ PUSH2 0x69A JUMPI PUSH1 0x40 MLOAD PUSH32 0x8C379A000000000000000000000000000000000000000000000000000000000 DUP2 MSTORE PUSH1 0x4 ADD PUSH2 0x691 SWAP1 PUSH2 0x11B0 JUMP JUMPDEST PUSH1 0x40 MLOAD DUP1 SWAP2 SUB SWAP1 REVERT JUMPDEST PUSH1 0x1 SLOAD DUP6 LT ISZERO DUP1 ISZERO PUSH2 0x6AE JUMPI POP PUSH1 0x2 SLOAD DUP6 GT ISZERO JUMPDEST PUSH2 0x6ED JUMPI PUSH1 0x40 MLOAD PUSH32 0x8C379A000000000000000000000000000000000000000000000000000000000 DUP2 MSTORE PUSH1 0x4 ADD PUSH2 0x6E4 SWAP1 PUSH2 0x121C JUMP JUMPDEST PUSH1 0x40 MLOAD DUP1 SWAP2 SUB SWAP1 REVERT JUMPDEST DUP5 SELFBALANCE LT ISZERO PUSH2 0x730 JUMPI PUSH1 0x40 MLOAD PUSH32 0x8C379A000000000000000000000000000000000000000000000000000000000 DUP2 MSTORE PUSH1 0x4 ADD PUSH2 0x727 SWAP1 PUSH2 0x1288 JUMP JUMPDEST PUSH1 0x40 MLOAD DUP1 SWAP2 SUB SWAP1 REVERT JUMPDEST PUSH1 0x0 DUP2 DUP7 DUP7 DUP7 ADDRESS PUSH1 0x40 MLOAD PUSH1 0x20 ADD PUSH2 0x74B SWAP6 SWAP5 SWAP4 SWAP3 SWAP2 SWAP1 PUSH2 0x1311 JUMP JUMPDEST PUSH1 0x40 MLOAD PUSH1 0x20 DUP2 DUP4 SUB SUB DUP2 MSTORE SWAP1 PUSH1 0x40 MSTORE DUP1 MLOAD SWAP1 PUSH1 0x20 ADD KECCAK256 SWAP1 POP PUSH1 0x0 PUSH2 0x76E DUP3 PUSH2 0xA26 JUMP JUMPDEST SWAP1 POP PUSH1 0x0 PUSH2 0x77C DUP3 DUP7 PUSH2 0xA56 JUMP JUMPDEST SWAP1 POP PUSH1 0x0 DUP1 SLOAD SWAP1 PUSH2 0x100 EXP SWAP1 DIV PUSH20 0xFFFFFFFFFFFFFFFFFFFFFFFFFFFFFFFFFFFFFFFF AND PUSH20 0xFFFFFFFFFFFFFFFFFFFFFFFFFFFFFFFFFFFFFFFF AND DUP2 PUSH20 0xFFFFFFFFFFFFFFFFFFFFFFFFFFFFFFFFFFFFFFFF AND EQ PUSH2 0x80C JUMPI PUSH1 0x40 MLOAD PUSH32 0x8C379A000000000000000000000000000000000000000000000000000000000 DUP2 MSTORE PUSH1 0x4 ADD PUSH2 0x803 SWAP1 PUSH2 0x13BC JUMP JUMPDEST PUSH1 0x40 MLOAD DUP1 SWAP2 SUB SWAP1 REVERT JUMPDEST PUSH1 0x4 PUSH1 0x0 DUP6 PUSH20 0xFFFFFFFFFFFFFFFFFFFFFFFFFFFFFFFFFFFFFFFF AND PUSH20 0xFFFFFFFFFFFFFFFFFFFFFFFFFFFFFFFFFFFFFFFF AND DUP2 MSTORE PUSH1 0x20 ADD SWAP1 DUP2 MSTORE PUSH1 0x20 ADD PUSH1 0x0 KECCAK256 PUSH1 0x0 DUP2 SLOAD DUP1 SWAP3 SWAP2 SWAP1 PUSH2 0x85C SWAP1 PUSH2 0x140B JUMP JUMPDEST SWAP2 SWAP1 POP SSTORE POP DUP8 PUSH1 0x3 PUSH1 0x0 DUP7 PUSH20 0xFFFFFFFFFFFFFFFFFFFFFFFFFFFFFFFFFFFFFFFF AND PUSH20 0xFFFFFFFFFFFFFFFFFFFFFFFFFFFFFFFFFFFFFFFF AND DUP2 MSTORE PUSH1 0x20 ADD SWAP1 DUP2 MSTORE PUSH1 0x20 ADD PUSH1 0x0 KECCAK256 PUSH1 0x0 DUP3 DUP3 SLOAD PUSH2 0x8B0 SWAP2 SWAP1 PUSH2 0x1453 JUMP JUMPDEST SWAP3 POP POP DUP2 SWAP1 SSTORE POP PUSH1 0x0 DUP5 PUSH20 0xFFFFFFFFFFFFFFFFFFFFFFFFFFFFFFFFFFFFFFFF AND DUP10 PUSH1 0x40 MLOAD PUSH2 0x8DD SWAP1 PUSH2 0x1077 JUMP JUMPDEST PUSH1 0x0 PUSH1 0x40 MLOAD DUP1 DUP4 SUB DUP2 DUP6 DUP8 GAS CALL SWAP3 POP POP POP RETURNDATASIZE DUP1 PUSH1 0x0 DUP2 EQ PUSH2 0x91A JUMPI PUSH1 0x40 MLOAD SWAP2 POP PUSH1 0x1F NOT PUSH1 0x3F RETURNDATASIZE ADD AND DUP3 ADD PUSH1 0x40 MSTORE RETURNDATASIZE DUP3 MSTORE RETURNDATASIZE PUSH1 0x0 PUSH1 0x20 DUP5 ADD RETURNDATACOPY PUSH2 0x91F JUMP JUMPDEST PUSH1 0x60 SWAP2 POP JUMPDEST POP POP SWAP1 POP DUP1 PUSH2 0x963 JUMPI PUSH1 0x40 MLOAD PUSH32 0x8C379A000000000000000000000000000000000000000000000000000000000 DUP2 MSTORE PUSH1 0x4 ADD PUSH2 0x95A SWAP1 PUSH2 0x14D3 JUMP JUMPDEST PUSH1 0x40 MLOAD DUP1 SWAP2 SUB SWAP1 REVERT JUMPDEST DUP5 PUSH20 0xFFFFFFFFFFFFFFFFFFFFFFFFFFFFFFFFFFFFFFFF AND PUSH32 0x9923B4306C6C030F2BDFBF156517D5983B87E15B96176DA122CD4F2EFFA4BA7B DUP11 TIMESTAMP PUSH1 0x40 MLOAD PUSH2 0x9AB SWAP3 SWAP2 SWAP1 PUSH2 0x14F3 JUMP JUMPDEST PUSH1 0x40 MLOAD DUP1 SWAP2 SUB SWAP1 LOG2 POP POP POP POP POP POP POP POP POP JUMP JUMPDEST PUSH1 0x0 SELFBALANCE SWAP1 POP SWAP1 JUMP JUMPDEST PUSH1 0x0 DUP1 SLOAD SWAP1 PUSH2 0x100 EXP SWAP1 DIV PUSH20 0xFFFFFFFFFFFFFFFFFFFFFFFFFFFFFFFFFFFFFFFF AND DUP2 JUMP JUMPDEST PUSH1 0x4 PUSH1 0x20 MSTORE DUP1 PUSH1 0x0 MSTORE PUSH1 0x40 PUSH1 0x0 KECCAK256 PUSH1 0x0 SWAP2 POP SWAP1 POP SLOAD DUP2 JUMP JUMPDEST PUSH1 0x1 SLOAD DUP2 JUMP JUMPDEST PUSH1 0x2 SLOAD DUP2 JUMP JUMPDEST PUSH1 0x3 PUSH1 0x20 MSTORE DUP1 PUSH1 0x0 MSTORE PUSH1 0x40 PUSH1 0x0 KECCAK256 PUSH1 0x0 SWAP2 POP SWAP1 POP SLOAD DUP2 JUMP JUMPDEST PUSH1 0x0 DUP2 PUSH1 0x40 MLOAD PUSH1 0x20 ADD PUSH2 0xA39 SWAP2 SWAP1 PUSH2 0x159E JUMP JUMPDEST PUSH1 0x40 MLOAD PUSH1 0x20 DUP2 DUP4 SUB SUB DUP2 MSTORE SWAP1 PUSH1 0x40 MSTORE DUP1 MLOAD SWAP1 PUSH1 0x20 ADD KECCAK256 SWAP1 POP SWAP2 SWAP1 POP JUMP JUMPDEST PUSH1 0x0 DUP1 PUSH1 0x0 DUP1 PUSH2 0xA65 DUP6 PUSH2 0xAC5 JUMP JUMPDEST SWAP3 POP SWAP3 POP SWAP3 POP PUSH1 0x1 DUP7 DUP5 DUP5 DUP5 PUSH1 0x40 MLOAD PUSH1 0x0 DUP2 MSTORE PUSH1 0x20 ADD PUSH1 0x40 MSTORE PUSH1 0x40 MLOAD PUSH2 0xA8E SWAP5 SWAP4 SWAP3 SWAP2 SWAP1 PUSH2 0x15EF JUMP JUMPDEST PUSH1 0x20 PUSH1 0x40 MLOAD PUSH1 0x20 DUP2 SUB SWAP1 DUP1 DUP5 SUB SWAP1 DUP6 GAS STATICCALL ISZERO DUP1 ISZERO PUSH2 0xAB0 JUMPI RETURNDATASIZE PUSH1 0x0 DUP1 RETURNDATACOPY RETURNDATASIZE PUSH1 0x0 REVERT JUMPDEST POP POP POP PUSH1 0x20 PUSH1 0x40 MLOAD SUB MLOAD SWAP4 POP POP POP POP SWAP3 SWAP2 POP POP JUMP JUMPDEST PUSH1 0x0 DUP1 PUSH1 0x0 PUSH1 0x41 DUP5 MLOAD EQ PUSH2 0xB0E JUMPI PUSH1 0x40 MLOAD PUSH32 0x8C379A000000000000000000000000000000000000000000000000000000000 DUP2 MSTORE PUSH1 0x4 ADD PUSH2 0xB05 SWAP1 PUSH2 0x1680 JUMP JUMPDEST PUSH1 0x40 MLOAD DUP1 SWAP2 SUB SWAP1 REVERT JUMPDEST PUSH1 0x20 DUP5 ADD MLOAD SWAP2 POP PUSH1 0x40 DUP5 ADD MLOAD SWAP1 POP PUSH1 0x60 DUP5 ADD MLOAD PUSH1 0x0 BYTE SWAP3 POP SWAP2 SWAP4 SWAP1 SWAP3 POP JUMP JUMPDEST PUSH1 0x0 PUSH1 0x40 MLOAD SWAP1 POP SWAP1 JUMP JUMPDEST PUSH1 0x0 DUP1 REVERT JUMPDEST PUSH1 0x0 DUP1 REVERT JUMPDEST PUSH1 0x0 DUP2 SWAP1 POP SWAP2 SWAP1 POP JUMP JUMPDEST PUSH2 0xB54 DUP2 PUSH2 0xB41 JUMP JUMPDEST DUP2 EQ PUSH2 0xB5F JUMPI PUSH1 0x0 DUP1 REVERT JUMPDEST POP JUMP JUMPDEST PUSH1 0x0 DUP2 CALLDATALOAD SWAP1 POP PUSH2 0xB71 DUP2 PUSH2 0xB4B JUMP JUMPDEST SWAP3 SWAP2 POP POP JUMP JUMPDEST PUSH1 0x0 DUP1 PUSH1 0x40 DUP4 DUP6 SUB SLT ISZERO PUSH2 0xB8E JUMPI PUSH2 0xB8D PUSH2 0xB37 JUMP JUMPDEST JUMPDEST PUSH1 0x0 PUSH2 0xB9C DUP6 DUP3 DUP7 ADD PUSH2 0xB62 JUMP JUMPDEST SWAP3 POP POP PUSH1 0x20 PUSH2 0xBAD DUP6 DUP3 DUP7 ADD PUSH2 0xB62 JUMP JUMPDEST SWAP2 POP POP SWAP3 POP SWAP3 SWAP1 POP JUMP JUMPDEST PUSH1 0x0 PUSH20 0xFFFFFFFFFFFFFFFFFFFFFFFFFFFFFFFFFFFFFFFF DUP3 AND SWAP1 POP SWAP2 SWAP1 POP JUMP JUMPDEST PUSH1 0x0 PUSH2 0xBE2 DUP3 PUSH2 0xBB7 JUMP JUMPDEST SWAP1 POP SWAP2 SWAP1 POP JUMP JUMPDEST PUSH2 0xBF2 DUP2 PUSH2 0xBD7 JUMP JUMPDEST DUP2 EQ PUSH2 0xBFD JUMPI PUSH1 0x0 DUP1 REVERT JUMPDEST POP JUMP JUMPDEST PUSH1 0x0 DUP2 CALLDATALOAD SWAP1 POP PUSH2 0xC0F DUP2 PUSH2 0xBE9 JUMP JUMPDEST SWAP3 SWAP2 POP POP JUMP JUMPDEST PUSH1 0x0 PUSH1 0x20 DUP3 DUP5 SUB SLT ISZERO PUSH2 0xC2B JUMPI PUSH2 0xC2A PUSH2 0xB37 JUMP JUMPDEST JUMPDEST PUSH1 0x0 PUSH2 0xC39 DUP5 DUP3 DUP6 ADD PUSH2 0xC00 JUMP JUMPDEST SWAP2 POP POP SWAP3 SWAP2 POP POP JUMP JUMPDEST PUSH2 0xC4B DUP2 PUSH2 0xB41 JUMP JUMPDEST DUP3 MSTORE POP POP JUMP JUMPDEST PUSH1 0x0 PUSH1 0x20 DUP3 ADD SWAP1 POP PUSH2 0xC66 PUSH1 0x0 DUP4 ADD DUP5 PUSH2 0xC42 JUMP JUMPDEST SWAP3 SWAP2 POP POP JUMP JUMPDEST PUSH1 0x0 DUP1 REVERT JUMPDEST PUSH1 0x0 DUP1 REVERT JUMPDEST PUSH1 0x0 PUSH1 0x1F NOT PUSH1 0x1F DUP4 ADD AND SWAP1 POP SWAP2 SWAP1 POP JUMP JUMPDEST PUSH32 0x4E487B7100000000000000000000000000000000000000000000000000000000 PUSH1 0x0 MSTORE PUSH1 0x41 PUSH1 0x4 MSTORE PUSH1 0x24 PUSH1 0x0 REVERT JUMPDEST PUSH2 0xCBF DUP3 PUSH2 0xC76 JUMP JUMPDEST DUP2 ADD DUP2 DUP2 LT PUSH8 0xFFFFFFFFFFFFFFFF DUP3 GT OR ISZERO PUSH2 0xCDE JUMPI PUSH2 0xCDD PUSH2 0xC87 JUMP JUMPDEST JUMPDEST DUP1 PUSH1 0x40 MSTORE POP POP POP JUMP JUMPDEST PUSH1 0x0 PUSH2 0xCF1 PUSH2 0xB2D JUMP JUMPDEST SWAP1 POP PUSH2 0xCFD DUP3 DUP3 PUSH2 0xCB6 JUMP JUMPDEST SWAP2 SWAP1 POP JUMP JUMPDEST PUSH1 0x0 PUSH8 0xFFFFFFFFFFFFFFFF DUP3 GT ISZERO PUSH2 0xD1D JUMPI PUSH2 0xD1C PUSH2 0xC87 JUMP JUMPDEST JUMPDEST PUSH2 0xD26 DUP3 PUSH2 0xC76 JUMP JUMPDEST SWAP1 POP PUSH1 0x20 DUP2 ADD SWAP1 POP SWAP2 SWAP1 POP JUMP JUMPDEST DUP3 DUP2 DUP4 CALLDATACOPY PUSH1 0x0 DUP4 DUP4 ADD MSTORE POP POP POP JUMP JUMPDEST PUSH1 0x0 PUSH2 0xD55 PUSH2 0xD50 DUP5 PUSH2 0xD02 JUMP JUMPDEST PUSH2 0xCE7 JUMP JUMPDEST SWAP1 POP DUP3 DUP2 MSTORE PUSH1 0x20 DUP2 ADD DUP5 DUP5 DUP5 ADD GT ISZERO PUSH2 0xD71 JUMPI PUSH2 0xD70 PUSH2 0xC71 JUMP JUMPDEST JUMPDEST PUSH2 0xD7C DUP5 DUP3 DUP6 PUSH2 0xD33 JUMP JUMPDEST POP SWAP4 SWAP3 POP POP POP JUMP JUMPDEST PUSH1 0x0 DUP3 PUSH1 0x1F DUP4 ADD SLT PUSH2 0xD99 JUMPI PUSH2 0xD98 PUSH2 0xC6C JUMP JUMPDEST JUMPDEST DUP2 CALLDATALOAD PUSH2 0xDA9 DUP5 DUP3 PUSH1 0x20 DUP7 ADD PUSH2 0xD42 JUMP JUMPDEST SWAP2 POP POP SWAP3 SWAP2 POP POP JUMP JUMPDEST PUSH1 0x0 DUP1 PUSH1 0x0 DUP1 PUSH1 0x80 DUP6 DUP8 SUB SLT ISZERO PUSH2 0xDCC JUMPI PUSH2 0xDCB PUSH2 0xB37 JUMP JUMPDEST JUMPDEST PUSH1 0x0 PUSH2 0xDDA DUP8 DUP3 DUP9 ADD PUSH2 0xB62 JUMP JUMPDEST SWAP5 POP POP PUSH1 0x20 PUSH2 0xDEB DUP8 DUP3 DUP9 ADD PUSH2 0xB62 JUMP JUMPDEST SWAP4 POP POP PUSH1 0x40 PUSH2 0xDFC DUP8 DUP3 DUP9 ADD PUSH2 0xB62 JUMP JUMPDEST SWAP3 POP POP PUSH1 0x60 DUP6 ADD CALLDATALOAD PUSH8 0xFFFFFFFFFFFFFFFF DUP2 GT ISZERO PUSH2 0xE1D JUMPI PUSH2 0xE1C PUSH2 0xB3C JUMP JUMPDEST JUMPDEST PUSH2 0xE29 DUP8 DUP3 DUP9 ADD PUSH2 0xD84 JUMP JUMPDEST SWAP2 POP POP SWAP3 SWAP6 SWAP2 SWAP5 POP SWAP3 POP JUMP JUMPDEST PUSH2 0xE3E DUP2 PUSH2 0xBD7 JUMP JUMPDEST DUP3 MSTORE POP POP JUMP JUMPDEST PUSH1 0x0 PUSH1 0x20 DUP3 ADD SWAP1 POP PUSH2 0xE59 PUSH1 0x0 DUP4 ADD DUP5 PUSH2 0xE35 JUMP JUMPDEST SWAP3 SWAP2 POP POP JUMP JUMPDEST PUSH1 0x0 DUP3 DUP3 MSTORE PUSH1 0x20 DUP3 ADD SWAP1 POP SWAP3 SWAP2 POP POP JUMP JUMPDEST PUSH32 0x4F6E6C79206F776E65722063616E2073657420636C61696D2072616E67650000 PUSH1 0x0 DUP3 ADD MSTORE POP JUMP JUMPDEST PUSH1 0x0 PUSH2 0xEA6 PUSH1 0x1E DUP4 PUSH2 0xE5F JUMP JUMPDEST SWAP2 POP PUSH2 0xEB1 DUP3 PUSH2 0xE70 JUMP JUMPDEST PUSH1 0x20 DUP3 ADD SWAP1 POP SWAP2 SWAP1 POP JUMP JUMPDEST PUSH1 0x0 PUSH1 0x20 DUP3 ADD SWAP1 POP DUP2 DUP2 SUB PUSH1 0x0 DUP4 ADD MSTORE PUSH2 0xED5 DUP2 PUSH2 0xE99 JUMP JUMPDEST SWAP1 POP SWAP2 SWAP1 POP JUMP JUMPDEST PUSH32 0x4D696E20616D6F756E74206D757374206265206C657373207468616E206F7220 PUSH1 0x0 DUP3 ADD MSTORE PUSH32 0x657175616C20746F206D617820616D6F756E7400000000000000000000000000 PUSH1 0x20 DUP3 ADD MSTORE POP JUMP JUMPDEST PUSH1 0x0 PUSH2 0xF38 PUSH1 0x33 DUP4 PUSH2 0xE5F JUMP JUMPDEST SWAP2 POP PUSH2 0xF43 DUP3 PUSH2 0xEDC JUMP JUMPDEST PUSH1 0x40 DUP3 ADD SWAP1 POP SWAP2 SWAP1 POP JUMP JUMPDEST PUSH1 0x0 PUSH1 0x20 DUP3 ADD SWAP1 POP DUP2 DUP2 SUB PUSH1 0x0 DUP4 ADD MSTORE PUSH2 0xF67 DUP2 PUSH2 0xF2B JUMP JUMPDEST SWAP1 POP SWAP2 SWAP1 POP JUMP JUMPDEST PUSH32 0x4F6E6C79206F776E65722063616E207769746864726177000000000000000000 PUSH1 0x0 DUP3 ADD MSTORE POP JUMP JUMPDEST PUSH1 0x0 PUSH2 0xFA4 PUSH1 0x17 DUP4 PUSH2 0xE5F JUMP JUMPDEST SWAP2 POP PUSH2 0xFAF DUP3 PUSH2 0xF6E JUMP JUMPDEST PUSH1 0x20 DUP3 ADD SWAP1 POP SWAP2 SWAP1 POP JUMP JUMPDEST PUSH1 0x0 PUSH1 0x20 DUP3 ADD SWAP1 POP DUP2 DUP2 SUB PUSH1 0x0 DUP4 ADD MSTORE PUSH2 0xFD3 DUP2 PUSH2 0xF97 JUMP JUMPDEST SWAP1 POP SWAP2 SWAP1 POP JUMP JUMPDEST PUSH32 0x4E6F2066756E647320746F207769746864726177000000000000000000000000 PUSH1 0x0 DUP3 ADD MSTORE POP JUMP JUMPDEST PUSH1 0x0 PUSH2 0x1010 PUSH1 0x14 DUP4 PUSH2 0xE5F JUMP JUMPDEST SWAP2 POP PUSH2 0x101B DUP3 PUSH2 0xFDA JUMP JUMPDEST PUSH1 0x20 DUP3 ADD SWAP1 POP SWAP2 SWAP1 POP JUMP JUMPDEST PUSH1 0x0 PUSH1 0x20 DUP3 ADD SWAP1 POP DUP2 DUP2 SUB PUSH1 0x0 DUP4 ADD MSTORE PUSH2 0x103F DUP2 PUSH2 0x1003 JUMP JUMPDEST SWAP1 POP SWAP2 SWAP1 POP JUMP JUMPDEST PUSH1 0x0 DUP2 SWAP1 POP SWAP3 SWAP2 POP POP JUMP JUMPDEST POP JUMP JUMPDEST PUSH1 0x0 PUSH2 0x1061 PUSH1 0x0 DUP4 PUSH2 0x1046 JUMP JUMPDEST SWAP2 POP PUSH2 0x106C DUP3 PUSH2 0x1051 JUMP JUMPDEST PUSH1 0x0 DUP3 ADD SWAP1 POP SWAP2 SWAP1 POP JUMP JUMPDEST PUSH1 0x0 PUSH2 0x1082 DUP3 PUSH2 0x1054 JUMP JUMPDEST SWAP2 POP DUP2 SWAP1 POP SWAP2 SWAP1 POP JUMP JUMPDEST PUSH32 0x4661696C656420746F2077697468647261770000000000000000000000000000 PUSH1 0x0 DUP3 ADD MSTORE POP JUMP JUMPDEST PUSH1 0x0 PUSH2 0x10C2 PUSH1 0x12 DUP4 PUSH2 0xE5F JUMP JUMPDEST SWAP2 POP PUSH2 0x10CD DUP3 PUSH2 0x108C JUMP JUMPDEST PUSH1 0x20 DUP3 ADD SWAP1 POP SWAP2 SWAP1 POP JUMP JUMPDEST PUSH1 0x0 PUSH1 0x20 DUP3 ADD SWAP1 POP DUP2 DUP2 SUB PUSH1 0x0 DUP4 ADD MSTORE PUSH2 0x10F1 DUP2 PUSH2 0x10B5 JUMP JUMPDEST SWAP1 POP SWAP2 SWAP1 POP JUMP JUMPDEST PUSH32 0x5369676E61747572652065787069726564000000000000000000000000000000 PUSH1 0x0 DUP3 ADD MSTORE POP JUMP JUMPDEST PUSH1 0x0 PUSH2 0x112E PUSH1 0x11 DUP4 PUSH2 0xE5F JUMP JUMPDEST SWAP2 POP PUSH2 0x1139 DUP3 PUSH2 0x10F8 JUMP JUMPDEST PUSH1 0x20 DUP3 ADD SWAP1 POP SWAP2 SWAP1 POP JUMP JUMPDEST PUSH1 0x0 PUSH1 0x20 DUP3 ADD SWAP1 POP DUP2 DUP2 SUB PUSH1 0x0 DUP4 ADD MSTORE PUSH2 0x115D DUP2 PUSH2 0x1121 JUMP JUMPDEST SWAP1 POP SWAP2 SWAP1 POP JUMP JUMPDEST PUSH32 0x496E76616C6964206F722075736564206E6F6E63650000000000000000000000 PUSH1 0x0 DUP3 ADD MSTORE POP JUMP JUMPDEST PUSH1 0x0 PUSH2 0x119A PUSH1 0x15 DUP4 PUSH2 0xE5F JUMP JUMPDEST SWAP2 POP PUSH2 0x11A5 DUP3 PUSH2 0x1164 JUMP JUMPDEST PUSH1 0x20 DUP3 ADD SWAP1 POP SWAP2 SWAP1 POP JUMP JUMPDEST PUSH1 0x0 PUSH1 0x20 DUP3 ADD SWAP1 POP DUP2 DUP2 SUB PUSH1 0x0 DUP4 ADD MSTORE PUSH2 0x11C9 DUP2 PUSH2 0x118D JUMP JUMPDEST SWAP1 POP SWAP2 SWAP1 POP JUMP JUMPDEST PUSH32 0x416D6F756E74206F7574206F662072616E676500000000000000000000000000 PUSH1 0x0 DUP3 ADD MSTORE POP JUMP JUMPDEST PUSH1 0x0 PUSH2 0x1206 PUSH1 0x13 DUP4 PUSH2 0xE5F JUMP JUMPDEST SWAP2 POP PUSH2 0x1211 DUP3 PUSH2 0x11D0 JUMP JUMPDEST PUSH1 0x20 DUP3 ADD SWAP1 POP SWAP2 SWAP1 POP JUMP JUMPDEST PUSH1 0x0 PUSH1 0x20 DUP3 ADD SWAP1 POP DUP2 DUP2 SUB PUSH1 0x0 DUP4 ADD MSTORE PUSH2 0x1235 DUP2 PUSH2 0x11F9 JUMP JUMPDEST SWAP1 POP SWAP2 SWAP1 POP JUMP JUMPDEST PUSH32 0x496E73756666696369656E7420636F6E74726163742062616C616E6365000000 PUSH1 0x0 DUP3 ADD MSTORE POP JUMP JUMPDEST PUSH1 0x0 PUSH2 0x1272 PUSH1 0x1D DUP4 PUSH2 0xE5F JUMP JUMPDEST SWAP2 POP PUSH2 0x127D DUP3 PUSH2 0x123C JUMP JUMPDEST PUSH1 0x20 DUP3 ADD SWAP1 POP SWAP2 SWAP1 POP JUMP JUMPDEST PUSH1 0x0 PUSH1 0x20 DUP3 ADD SWAP1 POP DUP2 DUP2 SUB PUSH1 0x0 DUP4 ADD MSTORE PUSH2 0x12A1 DUP2 PUSH2 0x1265 JUMP JUMPDEST SWAP1 POP SWAP2 SWAP1 POP JUMP JUMPDEST PUSH1 0x0 DUP2 PUSH1 0x60 SHL SWAP1 POP SWAP2 SWAP1 POP JUMP JUMPDEST PUSH1 0x0 PUSH2 0x12C0 DUP3 PUSH2 0x12A8 JUMP JUMPDEST SWAP1 POP SWAP2 SWAP1 POP JUMP JUMPDEST PUSH1 0x0 PUSH2 0x12D2 DUP3 PUSH2 0x12B5 JUMP JUMPDEST SWAP1 POP SWAP2 SWAP1 POP JUMP JUMPDEST PUSH2 0x12EA PUSH2 0x12E5 DUP3 PUSH2 0xBD7 JUMP JUMPDEST PUSH2 0x12C7 JUMP JUMPDEST DUP3 MSTORE POP POP JUMP JUMPDEST PUSH1 0x0 DUP2 SWAP1 POP SWAP2 SWAP1 POP JUMP JUMPDEST PUSH2 0x130B PUSH2 0x1306 DUP3 PUSH2 0xB41 JUMP JUMPDEST PUSH2 0x12F0 JUMP JUMPDEST DUP3 MSTORE POP POP JUMP JUMPDEST PUSH1 0x0 PUSH2 0x131D DUP3 DUP9 PUSH2 0x12D9 JUMP JUMPDEST PUSH1 0x14 DUP3 ADD SWAP2 POP PUSH2 0x132D DUP3 DUP8 PUSH2 0x12FA JUMP JUMPDEST PUSH1 0x20 DUP3 ADD SWAP2 POP PUSH2 0x133D DUP3 DUP7 PUSH2 0x12FA JUMP JUMPDEST PUSH1 0x20 DUP3 ADD SWAP2 POP PUSH2 0x134D DUP3 DUP6 PUSH2 0x12FA JUMP JUMPDEST PUSH1 0x20 DUP3 ADD SWAP2 POP PUSH2 0x135D DUP3 DUP5 PUSH2 0x12D9 JUMP JUMPDEST PUSH1 0x14 DUP3 ADD SWAP2 POP DUP2 SWAP1 POP SWAP7 SWAP6 POP POP POP POP POP POP JUMP JUMPDEST PUSH32 0x496E76616C6964207369676E6174757265000000000000000000000000000000 PUSH1 0x0 DUP3 ADD MSTORE POP JUMP JUMPDEST PUSH1 0x0 PUSH2 0x13A6 PUSH1 0x11 DUP4 PUSH2 0xE5F JUMP JUMPDEST SWAP2 POP PUSH2 0x13B1 DUP3 PUSH2 0x1370 JUMP JUMPDEST PUSH1 0x20 DUP3 ADD SWAP1 POP SWAP2 SWAP1 POP JUMP JUMPDEST PUSH1 0x0 PUSH1 0x20 DUP3 ADD SWAP1 POP DUP2 DUP2 SUB PUSH1 0x0 DUP4 ADD MSTORE PUSH2 0x13D5 DUP2 PUSH2 0x1399 JUMP JUMPDEST SWAP1 POP SWAP2 SWAP1 POP JUMP JUMPDEST PUSH32 0x4E487B7100000000000000000000000000000000000000000000000000000000 PUSH1 0x0 MSTORE PUSH1 0x11 PUSH1 0x4 MSTORE PUSH1 0x24 PUSH1 0x0 REVERT JUMPDEST PUSH1 0x0 PUSH2 0x1416 DUP3 PUSH2 0xB41 JUMP JUMPDEST SWAP2 POP PUSH32 0xFFFFFFFFFFFFFFFFFFFFFFFFFFFFFFFFFFFFFFFFFFFFFFFFFFFFFFFFFFFFFFFF DUP3 SUB PUSH2 0x1448 JUMPI PUSH2 0x1447 PUSH2 0x13DC JUMP JUMPDEST JUMPDEST PUSH1 0x1 DUP3 ADD SWAP1 POP SWAP2 SWAP1 POP JUMP JUMPDEST PUSH1 0x0 PUSH2 0x145E DUP3 PUSH2 0xB41 JUMP JUMPDEST SWAP2 POP PUSH2 0x1469 DUP4 PUSH2 0xB41 JUMP JUMPDEST SWAP3 POP DUP3 DUP3 ADD SWAP1 POP DUP1 DUP3 GT ISZERO PUSH2 0x1481 JUMPI PUSH2 0x1480 PUSH2 0x13DC JUMP JUMPDEST JUMPDEST SWAP3 SWAP2 POP POP JUMP JUMPDEST PUSH32 0x4661696C656420746F2073656E64204D4F4E0000000000000000000000000000 PUSH1 0x0 DUP3 ADD MSTORE POP JUMP JUMPDEST PUSH1 0x0 PUSH2 0x14BD PUSH1 0x12 DUP4 PUSH2 0xE5F JUMP JUMPDEST SWAP2 POP PUSH2 0x14C8 DUP3 PUSH2 0x1487 JUMP JUMPDEST PUSH1 0x20 DUP3 ADD SWAP1 POP SWAP2 SWAP1 POP JUMP JUMPDEST PUSH1 0x0 PUSH1 0x20 DUP3 ADD SWAP1 POP DUP2 DUP2 SUB PUSH1 0x0 DUP4 ADD MSTORE PUSH2 0x14EC DUP2 PUSH2 0x14B0 JUMP JUMPDEST SWAP1 POP SWAP2 SWAP1 POP JUMP JUMPDEST PUSH1 0x0 PUSH1 0x40 DUP3 ADD SWAP1 POP PUSH2 0x1508 PUSH1 0x0 DUP4 ADD DUP6 PUSH2 0xC42 JUMP JUMPDEST PUSH2 0x1515 PUSH1 0x20 DUP4 ADD DUP5 PUSH2 0xC42 JUMP JUMPDEST SWAP4 SWAP3 POP POP POP JUMP JUMPDEST PUSH1 0x0 DUP2 SWAP1 POP SWAP3 SWAP2 POP POP JUMP JUMPDEST PUSH32 0x19457468657265756D205369676E6564204D6573736167653A0A333200000000 PUSH1 0x0 DUP3 ADD MSTORE POP JUMP JUMPDEST PUSH1 0x0 PUSH2 0x155D PUSH1 0x1C DUP4 PUSH2 0x151C JUMP JUMPDEST SWAP2 POP PUSH2 0x1568 DUP3 PUSH2 0x1527 JUMP JUMPDEST PUSH1 0x1C DUP3 ADD SWAP1 POP SWAP2 SWAP1 POP JUMP JUMPDEST PUSH1 0x0 DUP2 SWAP1 POP SWAP2 SWAP1 POP JUMP JUMPDEST PUSH1 0x0 DUP2 SWAP1 POP SWAP2 SWAP1 POP JUMP JUMPDEST PUSH2 0x1598 PUSH2 0x1593 DUP3 PUSH2 0x1573 JUMP JUMPDEST PUSH2 0x157D JUMP JUMPDEST DUP3 MSTORE POP POP JUMP JUMPDEST PUSH1 0x0 PUSH2 0x15A9 DUP3 PUSH2 0x1550 JUMP JUMPDEST SWAP2 POP PUSH2 0x15B5 DUP3 DUP5 PUSH2 0x1587 JUMP JUMPDEST PUSH1 0x20 DUP3 ADD SWAP2 POP DUP2 SWAP1 POP SWAP3 SWAP2 POP POP JUMP JUMPDEST PUSH2 0x15CD DUP2 PUSH2 0x1573 JUMP JUMPDEST DUP3 MSTORE POP POP JUMP JUMPDEST PUSH1 0x0 PUSH1 0xFF DUP3 AND SWAP1 POP SWAP2 SWAP1 POP JUMP JUMPDEST PUSH2 0x15E9 DUP2 PUSH2 0x15D3 JUMP JUMPDEST DUP3 MSTORE POP POP JUMP JUMPDEST PUSH1 0x0 PUSH1 0x80 DUP3 ADD SWAP1 POP PUSH2 0x1604 PUSH1 0x0 DUP4 ADD DUP8 PUSH2 0x15C4 JUMP JUMPDEST PUSH2 0x1611 PUSH1 0x20 DUP4 ADD DUP7 PUSH2 0x15E0 JUMP JUMPDEST PUSH2 0x161E PUSH1 0x40 DUP4 ADD DUP6 PUSH2 0x15C4 JUMP JUMPDEST PUSH2 0x162B PUSH1 0x60 DUP4 ADD DUP5 PUSH2 0x15C4 JUMP JUMPDEST SWAP6 SWAP5 POP POP POP POP POP JUMP JUMPDEST PUSH32 0x496E76616C6964207369676E6174757265206C656E6774680000000000000000 PUSH1 0x0 DUP3 ADD MSTORE POP JUMP JUMPDEST PUSH1 0x0 PUSH2 0x166A PUSH1 0x18 DUP4 PUSH2 0xE5F JUMP JUMPDEST SWAP2 POP PUSH2 0x1675 DUP3 PUSH2 0x1634 JUMP JUMPDEST PUSH1 0x20 DUP3 ADD SWAP1 POP SWAP2 SWAP1 POP JUMP JUMPDEST PUSH1 0x0 PUSH1 0x20 DUP3 ADD SWAP1 POP DUP2 DUP2 SUB PUSH1 0x0 DUP4 ADD MSTORE PUSH2 0x1699 DUP2 PUSH2 0x165D JUMP JUMPDEST SWAP1 POP SWAP2 SWAP1 POP JUMP INVALID LOG1 PUSH5 0x736F6C6343 STOP ADDMOD SHR STOP EXP "
        },
        "methodIdentifiers": {
          "claim(uint256,uint256,uint256,bytes)": "6548b7ae",
          "claimedNonce(address)": "aac27103",
          "getContractBalance()": "6f9fb98a",
          "getNonce(address)": "2d0335ab",
          "getTotalClaimed(address)": "522bf1d4",
          "maxClaimAmount()": "aeef6439",
          "minClaimAmount()": "adc25bde",
          "owner()": "8da5cb5b",
          "setClaimRange(uint256,uint256)": "26932aac",
          "totalClaimed(address)": "ef5d9ae8",
          "withdraw()": "3ccfd60b"
        }
      }
    }
  }
}