{
  "contracts/MonadTokenDistribute.sol": {
    "MonadTokenDistribute": {
      "abi": [
        {
          "inputs": [],
          "stateMutability": "nonpayable",
          "type": "constructor"
        },
        {
          "anonymous": false,
          "inputs": [
            {
              "indexed": true,
              "internalType": "address",
              "name": "claimant",
              "type": "address"
            },
            {
              "indexed": false,
              "internalType": "uint256",
              "name": "amount",
              "type": "uint256"
            },
            {
              "indexed": false,
              "internalType": "uint256",
              "name": "timestamp",
              "type": "uint256"
            }
          ],
          "name": "TokensClaimed",
          "type": "event"
        },
        {
          "inputs": [
            {
              "internalType": "bytes",
              "name": "signature",
              "type": "bytes"
            }
          ],
          "name": "claim",
          "outputs": [],
          "stateMutability": "nonpayable",
          "type": "function"
        },
        {
          "inputs": [
            {
              "internalType": "address",
              "name": "",
              "type": "address"
            }
          ],
          "name": "claimedNonce",
          "outputs": [
            {
              "internalType": "uint256",
              "name": "",
              "type": "uint256"
            }
          ],
          "stateMutability": "view",
          "type": "function"
        },
        {
          "inputs": [],
          "name": "getContractBalance",
          "outputs": [
            {
              "internalType": "uint256",
              "name": "",
              "type": "uint256"
            }
          ],
          "stateMutability": "view",
          "type": "function"
        },
        {
          "inputs": [
            {
              "internalType": "address",
              "name": "claimant",
              "type": "address"
            }
          ],
          "name": "getNonce",
          "outputs": [
            {
              "internalType": "uint256",
              "name": "",
              "type": "uint256"
            }
          ],
          "stateMutability": "view",
          "type": "function"
        },
        {
          "inputs": [
            {
              "internalType": "address",
              "name": "claimant",
              "type": "address"
            }
          ],
          "name": "getTotalClaimed",
          "outputs": [
            {
              "internalType": "uint256",
              "name": "",
              "type": "uint256"
            }
          ],
          "stateMutability": "view",
          "type": "function"
        },
        {
          "inputs": [],
          "name": "maxClaimAmount",
          "outputs": [
            {
              "internalType": "uint256",
              "name": "",
              "type": "uint256"
            }
          ],
          "stateMutability": "view",
          "type": "function"
        },
        {
          "inputs": [],
          "name": "minClaimAmount",
          "outputs": [
            {
              "internalType": "uint256",
              "name": "",
              "type": "uint256"
            }
          ],
          "stateMutability": "view",
          "type": "function"
        },
        {
          "inputs": [],
          "name": "owner",
          "outputs": [
            {
              "internalType": "address",
              "name": "",
              "type": "address"
            }
          ],
          "stateMutability": "view",
          "type": "function"
        },
        {
          "inputs": [
            {
              "internalType": "uint256",
              "name": "_minAmount",
              "type": "uint256"
            },
            {
              "internalType": "uint256",
              "name": "_maxAmount",
              "type": "uint256"
            }
          ],
          "name": "setClaimRange",
          "outputs": [],
          "stateMutability": "nonpayable",
          "type": "function"
        },
        {
          "inputs": [
            {
              "internalType": "address",
              "name": "",
              "type": "address"
            }
          ],
          "name": "totalClaimed",
          "outputs": [
            {
              "internalType": "uint256",
              "name": "",
              "type": "uint256"
            }
          ],
          "stateMutability": "view",
          "type": "function"
        },
        {
          "inputs": [],
          "name": "withdraw",
          "outputs": [],
          "stateMutability": "nonpayable",
          "type": "function"
        },
        {
          "stateMutability": "payable",
          "type": "receive"
        }
      ],
      "evm": {
        "bytecode": {
          "linkReferences": {},
          "object": "6080604052678ac7230489e800006001556801158e460913d00000600255348015602857600080fd5b50336000806101000a81548173ffffffffffffffffffffffffffffffffffffffff021916908373ffffffffffffffffffffffffffffffffffffffff1602179055506117fa806100786000396000f3fe6080604052600436106100a05760003560e01c80638da5cb5b116100645780638da5cb5b14610191578063aac27103146101bc578063adc25bde146101f9578063aeef643914610224578063c63ff8dd1461024f578063ef5d9ae814610278576100a7565b806326932aac146100ac5780632d0335ab146100d55780633ccfd60b14610112578063522bf1d4146101295780636f9fb98a14610166576100a7565b366100a757005b600080fd5b3480156100b857600080fd5b506100d360048036038101906100ce9190610c08565b6102b5565b005b3480156100e157600080fd5b506100fc60048036038101906100f79190610ca6565b610398565b6040516101099190610ce2565b60405180910390f35b34801561011e57600080fd5b506101276103e1565b005b34801561013557600080fd5b50610150600480360381019061014b9190610ca6565b610588565b60405161015d9190610ce2565b60405180910390f35b34801561017257600080fd5b5061017b6105d1565b6040516101889190610ce2565b60405180910390f35b34801561019d57600080fd5b506101a66105d9565b6040516101b39190610d0c565b60405180910390f35b3480156101c857600080fd5b506101e360048036038101906101de9190610ca6565b6105fd565b6040516101f09190610ce2565b60405180910390f35b34801561020557600080fd5b5061020e610615565b60405161021b9190610ce2565b60405180910390f35b34801561023057600080fd5b5061023961061b565b6040516102469190610ce2565b60405180910390f35b34801561025b57600080fd5b5061027660048036038101906102719190610e6d565b610621565b005b34801561028457600080fd5b5061029f600480360381019061029a9190610ca6565b610a9f565b6040516102ac9190610ce2565b60405180910390f35b60008054906101000a900473ffffffffffffffffffffffffffffffffffffffff1673ffffffffffffffffffffffffffffffffffffffff163373ffffffffffffffffffffffffffffffffffffffff1614610343576040517f08c379a000000000000000000000000000000000000000000000000000000000815260040161033a90610f13565b60405180910390fd5b80821115610386576040517f08c379a000000000000000000000000000000000000000000000000000000000815260040161037d90610fa5565b60405180910390fd5b81600181905550806002819055505050565b6000600460008373ffffffffffffffffffffffffffffffffffffffff1673ffffffffffffffffffffffffffffffffffffffff168152602001908152602001600020549050919050565b60008054906101000a900473ffffffffffffffffffffffffffffffffffffffff1673ffffffffffffffffffffffffffffffffffffffff163373ffffffffffffffffffffffffffffffffffffffff161461046f576040517f08c379a000000000000000000000000000000000000000000000000000000000815260040161046690611011565b60405180910390fd5b6000479050600081116104b7576040517f08c379a00000000000000000000000000000000000000000000000000000000081526004016104ae9061107d565b60405180910390fd5b60008060009054906101000a900473ffffffffffffffffffffffffffffffffffffffff1673ffffffffffffffffffffffffffffffffffffffff16826040516104fe906110ce565b60006040518083038185875af1925050503d806000811461053b576040519150601f19603f3d011682016040523d82523d6000602084013e610540565b606091505b5050905080610584576040517f08c379a000000000000000000000000000000000000000000000000000000000815260040161057b9061112f565b60405180910390fd5b5050565b6000600360008373ffffffffffffffffffffffffffffffffffffffff1673ffffffffffffffffffffffffffffffffffffffff168152602001908152602001600020549050919050565b600047905090565b60008054906101000a900473ffffffffffffffffffffffffffffffffffffffff1681565b60046020528060005260406000206000915090505481565b60015481565b60025481565b6000339050600081600154600254600460008673ffffffffffffffffffffffffffffffffffffffff1673ffffffffffffffffffffffffffffffffffffffff16815260200190815260200160002054620151804261067e919061117e565b306040516020016106949695949392919061121b565b60405160208183030381529060405280519060200120905060006106b782610ab7565b905060006106c58286610ae7565b905060008054906101000a900473ffffffffffffffffffffffffffffffffffffffff1673ffffffffffffffffffffffffffffffffffffffff168173ffffffffffffffffffffffffffffffffffffffff1614610755576040517f08c379a000000000000000000000000000000000000000000000000000000000815260040161074c906112d7565b60405180910390fd5b60008060008760405160200161076b919061135d565b60405160208183030381529060405280602001905181019061078d9190611389565b925092509250804211156107d6576040517f08c379a00000000000000000000000000000000000000000000000000000000081526004016107cd90611428565b60405180910390fd5b81600460008973ffffffffffffffffffffffffffffffffffffffff1673ffffffffffffffffffffffffffffffffffffffff1681526020019081526020016000205414610857576040517f08c379a000000000000000000000000000000000000000000000000000000000815260040161084e90611494565b60405180910390fd5b600154831015801561086b57506002548311155b6108aa576040517f08c379a00000000000000000000000000000000000000000000000000000000081526004016108a190611500565b60405180910390fd5b824710156108ed576040517f08c379a00000000000000000000000000000000000000000000000000000000081526004016108e49061156c565b60405180910390fd5b600460008873ffffffffffffffffffffffffffffffffffffffff1673ffffffffffffffffffffffffffffffffffffffff168152602001908152602001600020600081548092919061093d9061158c565b919050555082600360008973ffffffffffffffffffffffffffffffffffffffff1673ffffffffffffffffffffffffffffffffffffffff1681526020019081526020016000206000828254610991919061117e565b9250508190555060008773ffffffffffffffffffffffffffffffffffffffff16846040516109be906110ce565b60006040518083038185875af1925050503d80600081146109fb576040519150601f19603f3d011682016040523d82523d6000602084013e610a00565b606091505b5050905080610a44576040517f08c379a0000000000000000000000000000000000000000000000000000000008152600401610a3b90611620565b60405180910390fd5b8773ffffffffffffffffffffffffffffffffffffffff167f9923b4306c6c030f2bdfbf156517d5983b87e15b96176da122cd4f2effa4ba7b8542604051610a8c929190611640565b60405180910390a2505050505050505050565b60036020528060005260406000206000915090505481565b600081604051602001610aca91906116eb565b604051602081830303815290604052805190602001209050919050565b600080600080610af685610b56565b92509250925060018684848460405160008152602001604052604051610b1f949392919061173c565b6020604051602081039080840390855afa158015610b41573d6000803e3d6000fd5b50505060206040510351935050505092915050565b60008060006041845114610b9f576040517f08c379a0000000000000000000000000000000000000000000000000000000008152600401610b96906117cd565b60405180910390fd5b6020840151915060408401519050606084015160001a92509193909250565b6000604051905090565b600080fd5b600080fd5b6000819050919050565b610be581610bd2565b8114610bf057600080fd5b50565b600081359050610c0281610bdc565b92915050565b60008060408385031215610c1f57610c1e610bc8565b5b6000610c2d85828601610bf3565b9250506020610c3e85828601610bf3565b9150509250929050565b600073ffffffffffffffffffffffffffffffffffffffff82169050919050565b6000610c7382610c48565b9050919050565b610c8381610c68565b8114610c8e57600080fd5b50565b600081359050610ca081610c7a565b92915050565b600060208284031215610cbc57610cbb610bc8565b5b6000610cca84828501610c91565b91505092915050565b610cdc81610bd2565b82525050565b6000602082019050610cf76000830184610cd3565b92915050565b610d0681610c68565b82525050565b6000602082019050610d216000830184610cfd565b92915050565b600080fd5b600080fd5b6000601f19601f8301169050919050565b7f4e487b7100000000000000000000000000000000000000000000000000000000600052604160045260246000fd5b610d7a82610d31565b810181811067ffffffffffffffff82111715610d9957610d98610d42565b5b80604052505050565b6000610dac610bbe565b9050610db88282610d71565b919050565b600067ffffffffffffffff821115610dd857610dd7610d42565b5b610de182610d31565b9050602081019050919050565b82818337600083830152505050565b6000610e10610e0b84610dbd565b610da2565b905082815260208101848484011115610e2c57610e2b610d2c565b5b610e37848285610dee565b509392505050565b600082601f830112610e5457610e53610d27565b5b8135610e64848260208601610dfd565b91505092915050565b600060208284031215610e8357610e82610bc8565b5b600082013567ffffffffffffffff811115610ea157610ea0610bcd565b5b610ead84828501610e3f565b91505092915050565b600082825260208201905092915050565b7f4f6e6c79206f776e65722063616e2073657420636c61696d2072616e67650000600082015250565b6000610efd601e83610eb6565b9150610f0882610ec7565b602082019050919050565b60006020820190508181036000830152610f2c81610ef0565b9050919050565b7f4d696e20616d6f756e74206d757374206265206c657373207468616e206f722060008201527f657175616c20746f206d617820616d6f756e7400000000000000000000000000602082015250565b6000610f8f603383610eb6565b9150610f9a82610f33565b604082019050919050565b60006020820190508181036000830152610fbe81610f82565b9050919050565b7f4f6e6c79206f776e65722063616e207769746864726177000000000000000000600082015250565b6000610ffb601783610eb6565b915061100682610fc5565b602082019050919050565b6000602082019050818103600083015261102a81610fee565b9050919050565b7f4e6f2066756e647320746f207769746864726177000000000000000000000000600082015250565b6000611067601483610eb6565b915061107282611031565b602082019050919050565b600060208201905081810360008301526110968161105a565b9050919050565b600081905092915050565b50565b60006110b860008361109d565b91506110c3826110a8565b600082019050919050565b60006110d9826110ab565b9150819050919050565b7f4661696c656420746f2077697468647261770000000000000000000000000000600082015250565b6000611119601283610eb6565b9150611124826110e3565b602082019050919050565b600060208201905081810360008301526111488161110c565b9050919050565b7f4e487b7100000000000000000000000000000000000000000000000000000000600052601160045260246000fd5b600061118982610bd2565b915061119483610bd2565b92508282019050808211156111ac576111ab61114f565b5b92915050565b60008160601b9050919050565b60006111ca826111b2565b9050919050565b60006111dc826111bf565b9050919050565b6111f46111ef82610c68565b6111d1565b82525050565b6000819050919050565b61121561121082610bd2565b6111fa565b82525050565b600061122782896111e3565b6014820191506112378288611204565b6020820191506112478287611204565b6020820191506112578286611204565b6020820191506112678285611204565b60208201915061127782846111e3565b601482019150819050979650505050505050565b7f496e76616c6964207369676e6174757265000000000000000000000000000000600082015250565b60006112c1601183610eb6565b91506112cc8261128b565b602082019050919050565b600060208201905081810360008301526112f0816112b4565b9050919050565b600081519050919050565b60005b83811015611320578082015181840152602081019050611305565b60008484015250505050565b6000611337826112f7565b611341818561109d565b9350611351818560208601611302565b80840191505092915050565b6000611369828461132c565b915081905092915050565b60008151905061138381610bdc565b92915050565b6000806000606084860312156113a2576113a1610bc8565b5b60006113b086828701611374565b93505060206113c186828701611374565b92505060406113d286828701611374565b9150509250925092565b7f5369676e61747572652065787069726564000000000000000000000000000000600082015250565b6000611412601183610eb6565b915061141d826113dc565b602082019050919050565b6000602082019050818103600083015261144181611405565b9050919050565b7f496e76616c6964206f722075736564206e6f6e63650000000000000000000000600082015250565b600061147e601583610eb6565b915061148982611448565b602082019050919050565b600060208201905081810360008301526114ad81611471565b9050919050565b7f416d6f756e74206f7574206f662072616e676500000000000000000000000000600082015250565b60006114ea601383610eb6565b91506114f5826114b4565b602082019050919050565b60006020820190508181036000830152611519816114dd565b9050919050565b7f496e73756666696369656e7420636f6e74726163742062616c616e6365000000600082015250565b6000611556601d83610eb6565b915061156182611520565b602082019050919050565b6000602082019050818103600083015261158581611549565b9050919050565b600061159782610bd2565b91507fffffffffffffffffffffffffffffffffffffffffffffffffffffffffffffffff82036115c9576115c861114f565b5b600182019050919050565b7f4661696c656420746f2073656e64204d4f4e0000000000000000000000000000600082015250565b600061160a601283610eb6565b9150611615826115d4565b602082019050919050565b60006020820190508181036000830152611639816115fd565b9050919050565b60006040820190506116556000830185610cd3565b6116626020830184610cd3565b9392505050565b600081905092915050565b7f19457468657265756d205369676e6564204d6573736167653a0a333200000000600082015250565b60006116aa601c83611669565b91506116b582611674565b601c82019050919050565b6000819050919050565b6000819050919050565b6116e56116e0826116c0565b6116ca565b82525050565b60006116f68261169d565b915061170282846116d4565b60208201915081905092915050565b61171a816116c0565b82525050565b600060ff82169050919050565b61173681611720565b82525050565b60006080820190506117516000830187611711565b61175e602083018661172d565b61176b6040830185611711565b6117786060830184611711565b95945050505050565b7f496e76616c6964207369676e6174757265206c656e6774680000000000000000600082015250565b60006117b7601883610eb6565b91506117c282611781565b602082019050919050565b600060208201905081810360008301526117e6816117aa565b905091905056fea164736f6c634300081c000a",
          "opcodes": "PUSH1 0x80 PUSH1 0x40 MSTORE PUSH8 0x8AC7230489E80000 PUSH1 0x1 SSTORE PUSH9 0x1158E460913D00000 PUSH1 0x2 SSTORE CALLVALUE DUP1 ISZERO PUSH1 0x28 JUMPI PUSH1 0x0 DUP1 REVERT JUMPDEST POP CALLER PUSH1 0x0 DUP1 PUSH2 0x100 EXP DUP2 SLOAD DUP2 PUSH20 0xFFFFFFFFFFFFFFFFFFFFFFFFFFFFFFFFFFFFFFFF MUL NOT AND SWAP1 DUP4 PUSH20 0xFFFFFFFFFFFFFFFFFFFFFFFFFFFFFFFFFFFFFFFF AND MUL OR SWAP1 SSTORE POP PUSH2 0x17FA DUP1 PUSH2 0x78 PUSH1 0x0 CODECOPY PUSH1 0x0 RETURN INVALID PUSH1 0x80 PUSH1 0x40 MSTORE PUSH1 0x4 CALLDATASIZE LT PUSH2 0xA0 JUMPI PUSH1 0x0 CALLDATALOAD PUSH1 0xE0 SHR DUP1 PUSH4 0x8DA5CB5B GT PUSH2 0x64 JUMPI DUP1 PUSH4 0x8DA5CB5B EQ PUSH2 0x191 JUMPI DUP1 PUSH4 0xAAC27103 EQ PUSH2 0x1BC JUMPI DUP1 PUSH4 0xADC25BDE EQ PUSH2 0x1F9 JUMPI DUP1 PUSH4 0xAEEF6439 EQ PUSH2 0x224 JUMPI DUP1 PUSH4 0xC63FF8DD EQ PUSH2 0x24F JUMPI DUP1 PUSH4 0xEF5D9AE8 EQ PUSH2 0x278 JUMPI PUSH2 0xA7 JUMP JUMPDEST DUP1 PUSH4 0x26932AAC EQ PUSH2 0xAC JUMPI DUP1 PUSH4 0x2D0335AB EQ PUSH2 0xD5 JUMPI DUP1 PUSH4 0x3CCFD60B EQ PUSH2 0x112 JUMPI DUP1 PUSH4 0x522BF1D4 EQ PUSH2 0x129 JUMPI DUP1 PUSH4 0x6F9FB98A EQ PUSH2 0x166 JUMPI PUSH2 0xA7 JUMP JUMPDEST CALLDATASIZE PUSH2 0xA7 JUMPI STOP JUMPDEST PUSH1 0x0 DUP1 REVERT JUMPDEST CALLVALUE DUP1 ISZERO PUSH2 0xB8 JUMPI PUSH1 0x0 DUP1 REVERT JUMPDEST POP PUSH2 0xD3 PUSH1 0x4 DUP1 CALLDATASIZE SUB DUP2 ADD SWAP1 PUSH2 0xCE SWAP2 SWAP1 PUSH2 0xC08 JUMP JUMPDEST PUSH2 0x2B5 JUMP JUMPDEST STOP JUMPDEST CALLVALUE DUP1 ISZERO PUSH2 0xE1 JUMPI PUSH1 0x0 DUP1 REVERT JUMPDEST POP PUSH2 0xFC PUSH1 0x4 DUP1 CALLDATASIZE SUB DUP2 ADD SWAP1 PUSH2 0xF7 SWAP2 SWAP1 PUSH2 0xCA6 JUMP JUMPDEST PUSH2 0x398 JUMP JUMPDEST PUSH1 0x40 MLOAD PUSH2 0x109 SWAP2 SWAP1 PUSH2 0xCE2 JUMP JUMPDEST PUSH1 0x40 MLOAD DUP1 SWAP2 SUB SWAP1 RETURN JUMPDEST CALLVALUE DUP1 ISZERO PUSH2 0x11E JUMPI PUSH1 0x0 DUP1 REVERT JUMPDEST POP PUSH2 0x127 PUSH2 0x3E1 JUMP JUMPDEST STOP JUMPDEST CALLVALUE DUP1 ISZERO PUSH2 0x135 JUMPI PUSH1 0x0 DUP1 REVERT JUMPDEST POP PUSH2 0x150 PUSH1 0x4 DUP1 CALLDATASIZE SUB DUP2 ADD SWAP1 PUSH2 0x14B SWAP2 SWAP1 PUSH2 0xCA6 JUMP JUMPDEST PUSH2 0x588 JUMP JUMPDEST PUSH1 0x40 MLOAD PUSH2 0x15D SWAP2 SWAP1 PUSH2 0xCE2 JUMP JUMPDEST PUSH1 0x40 MLOAD DUP1 SWAP2 SUB SWAP1 RETURN JUMPDEST CALLVALUE DUP1 ISZERO PUSH2 0x172 JUMPI PUSH1 0x0 DUP1 REVERT JUMPDEST POP PUSH2 0x17B PUSH2 0x5D1 JUMP JUMPDEST PUSH1 0x40 MLOAD PUSH2 0x188 SWAP2 SWAP1 PUSH2 0xCE2 JUMP JUMPDEST PUSH1 0x40 MLOAD DUP1 SWAP2 SUB SWAP1 RETURN JUMPDEST CALLVALUE DUP1 ISZERO PUSH2 0x19D JUMPI PUSH1 0x0 DUP1 REVERT JUMPDEST POP PUSH2 0x1A6 PUSH2 0x5D9 JUMP JUMPDEST PUSH1 0x40 MLOAD PUSH2 0x1B3 SWAP2 SWAP1 PUSH2 0xD0C JUMP JUMPDEST PUSH1 0x40 MLOAD DUP1 SWAP2 SUB SWAP1 RETURN JUMPDEST CALLVALUE DUP1 ISZERO PUSH2 0x1C8 JUMPI PUSH1 0x0 DUP1 REVERT JUMPDEST POP PUSH2 0x1E3 PUSH1 0x4 DUP1 CALLDATASIZE SUB DUP2 ADD SWAP1 PUSH2 0x1DE SWAP2 SWAP1 PUSH2 0xCA6 JUMP JUMPDEST PUSH2 0x5FD JUMP JUMPDEST PUSH1 0x40 MLOAD PUSH2 0x1F0 SWAP2 SWAP1 PUSH2 0xCE2 JUMP JUMPDEST PUSH1 0x40 MLOAD DUP1 SWAP2 SUB SWAP1 RETURN JUMPDEST CALLVALUE DUP1 ISZERO PUSH2 0x205 JUMPI PUSH1 0x0 DUP1 REVERT JUMPDEST POP PUSH2 0x20E PUSH2 0x615 JUMP JUMPDEST PUSH1 0x40 MLOAD PUSH2 0x21B SWAP2 SWAP1 PUSH2 0xCE2 JUMP JUMPDEST PUSH1 0x40 MLOAD DUP1 SWAP2 SUB SWAP1 RETURN JUMPDEST CALLVALUE DUP1 ISZERO PUSH2 0x230 JUMPI PUSH1 0x0 DUP1 REVERT JUMPDEST POP PUSH2 0x239 PUSH2 0x61B JUMP JUMPDEST PUSH1 0x40 MLOAD PUSH2 0x246 SWAP2 SWAP1 PUSH2 0xCE2 JUMP JUMPDEST PUSH1 0x40 MLOAD DUP1 SWAP2 SUB SWAP1 RETURN JUMPDEST CALLVALUE DUP1 ISZERO PUSH2 0x25B JUMPI PUSH1 0x0 DUP1 REVERT JUMPDEST POP PUSH2 0x276 PUSH1 0x4 DUP1 CALLDATASIZE SUB DUP2 ADD SWAP1 PUSH2 0x271 SWAP2 SWAP1 PUSH2 0xE6D JUMP JUMPDEST PUSH2 0x621 JUMP JUMPDEST STOP JUMPDEST CALLVALUE DUP1 ISZERO PUSH2 0x284 JUMPI PUSH1 0x0 DUP1 REVERT JUMPDEST POP PUSH2 0x29F PUSH1 0x4 DUP1 CALLDATASIZE SUB DUP2 ADD SWAP1 PUSH2 0x29A SWAP2 SWAP1 PUSH2 0xCA6 JUMP JUMPDEST PUSH2 0xA9F JUMP JUMPDEST PUSH1 0x40 MLOAD PUSH2 0x2AC SWAP2 SWAP1 PUSH2 0xCE2 JUMP JUMPDEST PUSH1 0x40 MLOAD DUP1 SWAP2 SUB SWAP1 RETURN JUMPDEST PUSH1 0x0 DUP1 SLOAD SWAP1 PUSH2 0x100 EXP SWAP1 DIV PUSH20 0xFFFFFFFFFFFFFFFFFFFFFFFFFFFFFFFFFFFFFFFF AND PUSH20 0xFFFFFFFFFFFFFFFFFFFFFFFFFFFFFFFFFFFFFFFF AND CALLER PUSH20 0xFFFFFFFFFFFFFFFFFFFFFFFFFFFFFFFFFFFFFFFF AND EQ PUSH2 0x343 JUMPI PUSH1 0x40 MLOAD PUSH32 0x8C379A000000000000000000000000000000000000000000000000000000000 DUP2 MSTORE PUSH1 0x4 ADD PUSH2 0x33A SWAP1 PUSH2 0xF13 JUMP JUMPDEST PUSH1 0x40 MLOAD DUP1 SWAP2 SUB SWAP1 REVERT JUMPDEST DUP1 DUP3 GT ISZERO PUSH2 0x386 JUMPI PUSH1 0x40 MLOAD PUSH32 0x8C379A000000000000000000000000000000000000000000000000000000000 DUP2 MSTORE PUSH1 0x4 ADD PUSH2 0x37D SWAP1 PUSH2 0xFA5 JUMP JUMPDEST PUSH1 0x40 MLOAD DUP1 SWAP2 SUB SWAP1 REVERT JUMPDEST DUP2 PUSH1 0x1 DUP2 SWAP1 SSTORE POP DUP1 PUSH1 0x2 DUP2 SWAP1 SSTORE POP POP POP JUMP JUMPDEST PUSH1 0x0 PUSH1 0x4 PUSH1 0x0 DUP4 PUSH20 0xFFFFFFFFFFFFFFFFFFFFFFFFFFFFFFFFFFFFFFFF AND PUSH20 0xFFFFFFFFFFFFFFFFFFFFFFFFFFFFFFFFFFFFFFFF AND DUP2 MSTORE PUSH1 0x20 ADD SWAP1 DUP2 MSTORE PUSH1 0x20 ADD PUSH1 0x0 KECCAK256 SLOAD SWAP1 POP SWAP2 SWAP1 POP JUMP JUMPDEST PUSH1 0x0 DUP1 SLOAD SWAP1 PUSH2 0x100 EXP SWAP1 DIV PUSH20 0xFFFFFFFFFFFFFFFFFFFFFFFFFFFFFFFFFFFFFFFF AND PUSH20 0xFFFFFFFFFFFFFFFFFFFFFFFFFFFFFFFFFFFFFFFF AND CALLER PUSH20 0xFFFFFFFFFFFFFFFFFFFFFFFFFFFFFFFFFFFFFFFF AND EQ PUSH2 0x46F JUMPI PUSH1 0x40 MLOAD PUSH32 0x8C379A000000000000000000000000000000000000000000000000000000000 DUP2 MSTORE PUSH1 0x4 ADD PUSH2 0x466 SWAP1 PUSH2 0x1011 JUMP JUMPDEST PUSH1 0x40 MLOAD DUP1 SWAP2 SUB SWAP1 REVERT JUMPDEST PUSH1 0x0 SELFBALANCE SWAP1 POP PUSH1 0x0 DUP2 GT PUSH2 0x4B7 JUMPI PUSH1 0x40 MLOAD PUSH32 0x8C379A000000000000000000000000000000000000000000000000000000000 DUP2 MSTORE PUSH1 0x4 ADD PUSH2 0x4AE SWAP1 PUSH2 0x107D JUMP JUMPDEST PUSH1 0x40 MLOAD DUP1 SWAP2 SUB SWAP1 REVERT JUMPDEST PUSH1 0x0 DUP1 PUSH1 0x0 SWAP1 SLOAD SWAP1 PUSH2 0x100 EXP SWAP1 DIV PUSH20 0xFFFFFFFFFFFFFFFFFFFFFFFFFFFFFFFFFFFFFFFF AND PUSH20 0xFFFFFFFFFFFFFFFFFFFFFFFFFFFFFFFFFFFFFFFF AND DUP3 PUSH1 0x40 MLOAD PUSH2 0x4FE SWAP1 PUSH2 0x10CE JUMP JUMPDEST PUSH1 0x0 PUSH1 0x40 MLOAD DUP1 DUP4 SUB DUP2 DUP6 DUP8 GAS CALL SWAP3 POP POP POP RETURNDATASIZE DUP1 PUSH1 0x0 DUP2 EQ PUSH2 0x53B JUMPI PUSH1 0x40 MLOAD SWAP2 POP PUSH1 0x1F NOT PUSH1 0x3F RETURNDATASIZE ADD AND DUP3 ADD PUSH1 0x40 MSTORE RETURNDATASIZE DUP3 MSTORE RETURNDATASIZE PUSH1 0x0 PUSH1 0x20 DUP5 ADD RETURNDATACOPY PUSH2 0x540 JUMP JUMPDEST PUSH1 0x60 SWAP2 POP JUMPDEST POP POP SWAP1 POP DUP1 PUSH2 0x584 JUMPI PUSH1 0x40 MLOAD PUSH32 0x8C379A000000000000000000000000000000000000000000000000000000000 DUP2 MSTORE PUSH1 0x4 ADD PUSH2 0x57B SWAP1 PUSH2 0x112F JUMP JUMPDEST PUSH1 0x40 MLOAD DUP1 SWAP2 SUB SWAP1 REVERT JUMPDEST POP POP JUMP JUMPDEST PUSH1 0x0 PUSH1 0x3 PUSH1 0x0 DUP4 PUSH20 0xFFFFFFFFFFFFFFFFFFFFFFFFFFFFFFFFFFFFFFFF AND PUSH20 0xFFFFFFFFFFFFFFFFFFFFFFFFFFFFFFFFFFFFFFFF AND DUP2 MSTORE PUSH1 0x20 ADD SWAP1 DUP2 MSTORE PUSH1 0x20 ADD PUSH1 0x0 KECCAK256 SLOAD SWAP1 POP SWAP2 SWAP1 POP JUMP JUMPDEST PUSH1 0x0 SELFBALANCE SWAP1 POP SWAP1 JUMP JUMPDEST PUSH1 0x0 DUP1 SLOAD SWAP1 PUSH2 0x100 EXP SWAP1 DIV PUSH20 0xFFFFFFFFFFFFFFFFFFFFFFFFFFFFFFFFFFFFFFFF AND DUP2 JUMP JUMPDEST PUSH1 0x4 PUSH1 0x20 MSTORE DUP1 PUSH1 0x0 MSTORE PUSH1 0x40 PUSH1 0x0 KECCAK256 PUSH1 0x0 SWAP2 POP SWAP1 POP SLOAD DUP2 JUMP JUMPDEST PUSH1 0x1 SLOAD DUP2 JUMP JUMPDEST PUSH1 0x2 SLOAD DUP2 JUMP JUMPDEST PUSH1 0x0 CALLER SWAP1 POP PUSH1 0x0 DUP2 PUSH1 0x1 SLOAD PUSH1 0x2 SLOAD PUSH1 0x4 PUSH1 0x0 DUP7 PUSH20 0xFFFFFFFFFFFFFFFFFFFFFFFFFFFFFFFFFFFFFFFF AND PUSH20 0xFFFFFFFFFFFFFFFFFFFFFFFFFFFFFFFFFFFFFFFF AND DUP2 MSTORE PUSH1 0x20 ADD SWAP1 DUP2 MSTORE PUSH1 0x20 ADD PUSH1 0x0 KECCAK256 SLOAD PUSH3 0x15180 TIMESTAMP PUSH2 0x67E SWAP2 SWAP1 PUSH2 0x117E JUMP JUMPDEST ADDRESS PUSH1 0x40 MLOAD PUSH1 0x20 ADD PUSH2 0x694 SWAP7 SWAP6 SWAP5 SWAP4 SWAP3 SWAP2 SWAP1 PUSH2 0x121B JUMP JUMPDEST PUSH1 0x40 MLOAD PUSH1 0x20 DUP2 DUP4 SUB SUB DUP2 MSTORE SWAP1 PUSH1 0x40 MSTORE DUP1 MLOAD SWAP1 PUSH1 0x20 ADD KECCAK256 SWAP1 POP PUSH1 0x0 PUSH2 0x6B7 DUP3 PUSH2 0xAB7 JUMP JUMPDEST SWAP1 POP PUSH1 0x0 PUSH2 0x6C5 DUP3 DUP7 PUSH2 0xAE7 JUMP JUMPDEST SWAP1 POP PUSH1 0x0 DUP1 SLOAD SWAP1 PUSH2 0x100 EXP SWAP1 DIV PUSH20 0xFFFFFFFFFFFFFFFFFFFFFFFFFFFFFFFFFFFFFFFF AND PUSH20 0xFFFFFFFFFFFFFFFFFFFFFFFFFFFFFFFFFFFFFFFF AND DUP2 PUSH20 0xFFFFFFFFFFFFFFFFFFFFFFFFFFFFFFFFFFFFFFFF AND EQ PUSH2 0x755 JUMPI PUSH1 0x40 MLOAD PUSH32 0x8C379A000000000000000000000000000000000000000000000000000000000 DUP2 MSTORE PUSH1 0x4 ADD PUSH2 0x74C SWAP1 PUSH2 0x12D7 JUMP JUMPDEST PUSH1 0x40 MLOAD DUP1 SWAP2 SUB SWAP1 REVERT JUMPDEST PUSH1 0x0 DUP1 PUSH1 0x0 DUP8 PUSH1 0x40 MLOAD PUSH1 0x20 ADD PUSH2 0x76B SWAP2 SWAP1 PUSH2 0x135D JUMP JUMPDEST PUSH1 0x40 MLOAD PUSH1 0x20 DUP2 DUP4 SUB SUB DUP2 MSTORE SWAP1 PUSH1 0x40 MSTORE DUP1 PUSH1 0x20 ADD SWAP1 MLOAD DUP2 ADD SWAP1 PUSH2 0x78D SWAP2 SWAP1 PUSH2 0x1389 JUMP JUMPDEST SWAP3 POP SWAP3 POP SWAP3 POP DUP1 TIMESTAMP GT ISZERO PUSH2 0x7D6 JUMPI PUSH1 0x40 MLOAD PUSH32 0x8C379A000000000000000000000000000000000000000000000000000000000 DUP2 MSTORE PUSH1 0x4 ADD PUSH2 0x7CD SWAP1 PUSH2 0x1428 JUMP JUMPDEST PUSH1 0x40 MLOAD DUP1 SWAP2 SUB SWAP1 REVERT JUMPDEST DUP2 PUSH1 0x4 PUSH1 0x0 DUP10 PUSH20 0xFFFFFFFFFFFFFFFFFFFFFFFFFFFFFFFFFFFFFFFF AND PUSH20 0xFFFFFFFFFFFFFFFFFFFFFFFFFFFFFFFFFFFFFFFF AND DUP2 MSTORE PUSH1 0x20 ADD SWAP1 DUP2 MSTORE PUSH1 0x20 ADD PUSH1 0x0 KECCAK256 SLOAD EQ PUSH2 0x857 JUMPI PUSH1 0x40 MLOAD PUSH32 0x8C379A000000000000000000000000000000000000000000000000000000000 DUP2 MSTORE PUSH1 0x4 ADD PUSH2 0x84E SWAP1 PUSH2 0x1494 JUMP JUMPDEST PUSH1 0x40 MLOAD DUP1 SWAP2 SUB SWAP1 REVERT JUMPDEST PUSH1 0x1 SLOAD DUP4 LT ISZERO DUP1 ISZERO PUSH2 0x86B JUMPI POP PUSH1 0x2 SLOAD DUP4 GT ISZERO JUMPDEST PUSH2 0x8AA JUMPI PUSH1 0x40 MLOAD PUSH32 0x8C379A000000000000000000000000000000000000000000000000000000000 DUP2 MSTORE PUSH1 0x4 ADD PUSH2 0x8A1 SWAP1 PUSH2 0x1500 JUMP JUMPDEST PUSH1 0x40 MLOAD DUP1 SWAP2 SUB SWAP1 REVERT JUMPDEST DUP3 SELFBALANCE LT ISZERO PUSH2 0x8ED JUMPI PUSH1 0x40 MLOAD PUSH32 0x8C379A000000000000000000000000000000000000000000000000000000000 DUP2 MSTORE PUSH1 0x4 ADD PUSH2 0x8E4 SWAP1 PUSH2 0x156C JUMP JUMPDEST PUSH1 0x40 MLOAD DUP1 SWAP2 SUB SWAP1 REVERT JUMPDEST PUSH1 0x4 PUSH1 0x0 DUP9 PUSH20 0xFFFFFFFFFFFFFFFFFFFFFFFFFFFFFFFFFFFFFFFF AND PUSH20 0xFFFFFFFFFFFFFFFFFFFFFFFFFFFFFFFFFFFFFFFF AND DUP2 MSTORE PUSH1 0x20 ADD SWAP1 DUP2 MSTORE PUSH1 0x20 ADD PUSH1 0x0 KECCAK256 PUSH1 0x0 DUP2 SLOAD DUP1 SWAP3 SWAP2 SWAP1 PUSH2 0x93D SWAP1 PUSH2 0x158C JUMP JUMPDEST SWAP2 SWAP1 POP SSTORE POP DUP3 PUSH1 0x3 PUSH1 0x0 DUP10 PUSH20 0xFFFFFFFFFFFFFFFFFFFFFFFFFFFFFFFFFFFFFFFF AND PUSH20 0xFFFFFFFFFFFFFFFFFFFFFFFFFFFFFFFFFFFFFFFF AND DUP2 MSTORE PUSH1 0x20 ADD SWAP1 DUP2 MSTORE PUSH1 0x20 ADD PUSH1 0x0 KECCAK256 PUSH1 0x0 DUP3 DUP3 SLOAD PUSH2 0x991 SWAP2 SWAP1 PUSH2 0x117E JUMP JUMPDEST SWAP3 POP POP DUP2 SWAP1 SSTORE POP PUSH1 0x0 DUP8 PUSH20 0xFFFFFFFFFFFFFFFFFFFFFFFFFFFFFFFFFFFFFFFF AND DUP5 PUSH1 0x40 MLOAD PUSH2 0x9BE SWAP1 PUSH2 0x10CE JUMP JUMPDEST PUSH1 0x0 PUSH1 0x40 MLOAD DUP1 DUP4 SUB DUP2 DUP6 DUP8 GAS CALL SWAP3 POP POP POP RETURNDATASIZE DUP1 PUSH1 0x0 DUP2 EQ PUSH2 0x9FB JUMPI PUSH1 0x40 MLOAD SWAP2 POP PUSH1 0x1F NOT PUSH1 0x3F RETURNDATASIZE ADD AND DUP3 ADD PUSH1 0x40 MSTORE RETURNDATASIZE DUP3 MSTORE RETURNDATASIZE PUSH1 0x0 PUSH1 0x20 DUP5 ADD RETURNDATACOPY PUSH2 0xA00 JUMP JUMPDEST PUSH1 0x60 SWAP2 POP JUMPDEST POP POP SWAP1 POP DUP1 PUSH2 0xA44 JUMPI PUSH1 0x40 MLOAD PUSH32 0x8C379A000000000000000000000000000000000000000000000000000000000 DUP2 MSTORE PUSH1 0x4 ADD PUSH2 0xA3B SWAP1 PUSH2 0x1620 JUMP JUMPDEST PUSH1 0x40 MLOAD DUP1 SWAP2 SUB SWAP1 REVERT JUMPDEST DUP8 PUSH20 0xFFFFFFFFFFFFFFFFFFFFFFFFFFFFFFFFFFFFFFFF AND PUSH32 0x9923B4306C6C030F2BDFBF156517D5983B87E15B96176DA122CD4F2EFFA4BA7B DUP6 TIMESTAMP PUSH1 0x40 MLOAD PUSH2 0xA8C SWAP3 SWAP2 SWAP1 PUSH2 0x1640 JUMP JUMPDEST PUSH1 0x40 MLOAD DUP1 SWAP2 SUB SWAP1 LOG2 POP POP POP POP POP POP POP POP POP JUMP JUMPDEST PUSH1 0x3 PUSH1 0x20 MSTORE DUP1 PUSH1 0x0 MSTORE PUSH1 0x40 PUSH1 0x0 KECCAK256 PUSH1 0x0 SWAP2 POP SWAP1 POP SLOAD DUP2 JUMP JUMPDEST PUSH1 0x0 DUP2 PUSH1 0x40 MLOAD PUSH1 0x20 ADD PUSH2 0xACA SWAP2 SWAP1 PUSH2 0x16EB JUMP JUMPDEST PUSH1 0x40 MLOAD PUSH1 0x20 DUP2 DUP4 SUB SUB DUP2 MSTORE SWAP1 PUSH1 0x40 MSTORE DUP1 MLOAD SWAP1 PUSH1 0x20 ADD KECCAK256 SWAP1 POP SWAP2 SWAP1 POP JUMP JUMPDEST PUSH1 0x0 DUP1 PUSH1 0x0 DUP1 PUSH2 0xAF6 DUP6 PUSH2 0xB56 JUMP JUMPDEST SWAP3 POP SWAP3 POP SWAP3 POP PUSH1 0x1 DUP7 DUP5 DUP5 DUP5 PUSH1 0x40 MLOAD PUSH1 0x0 DUP2 MSTORE PUSH1 0x20 ADD PUSH1 0x40 MSTORE PUSH1 0x40 MLOAD PUSH2 0xB1F SWAP5 SWAP4 SWAP3 SWAP2 SWAP1 PUSH2 0x173C JUMP JUMPDEST PUSH1 0x20 PUSH1 0x40 MLOAD PUSH1 0x20 DUP2 SUB SWAP1 DUP1 DUP5 SUB SWAP1 DUP6 GAS STATICCALL ISZERO DUP1 ISZERO PUSH2 0xB41 JUMPI RETURNDATASIZE PUSH1 0x0 DUP1 RETURNDATACOPY RETURNDATASIZE PUSH1 0x0 REVERT JUMPDEST POP POP POP PUSH1 0x20 PUSH1 0x40 MLOAD SUB MLOAD SWAP4 POP POP POP POP SWAP3 SWAP2 POP POP JUMP JUMPDEST PUSH1 0x0 DUP1 PUSH1 0x0 PUSH1 0x41 DUP5 MLOAD EQ PUSH2 0xB9F JUMPI PUSH1 0x40 MLOAD PUSH32 0x8C379A000000000000000000000000000000000000000000000000000000000 DUP2 MSTORE PUSH1 0x4 ADD PUSH2 0xB96 SWAP1 PUSH2 0x17CD JUMP JUMPDEST PUSH1 0x40 MLOAD DUP1 SWAP2 SUB SWAP1 REVERT JUMPDEST PUSH1 0x20 DUP5 ADD MLOAD SWAP2 POP PUSH1 0x40 DUP5 ADD MLOAD SWAP1 POP PUSH1 0x60 DUP5 ADD MLOAD PUSH1 0x0 BYTE SWAP3 POP SWAP2 SWAP4 SWAP1 SWAP3 POP JUMP JUMPDEST PUSH1 0x0 PUSH1 0x40 MLOAD SWAP1 POP SWAP1 JUMP JUMPDEST PUSH1 0x0 DUP1 REVERT JUMPDEST PUSH1 0x0 DUP1 REVERT JUMPDEST PUSH1 0x0 DUP2 SWAP1 POP SWAP2 SWAP1 POP JUMP JUMPDEST PUSH2 0xBE5 DUP2 PUSH2 0xBD2 JUMP JUMPDEST DUP2 EQ PUSH2 0xBF0 JUMPI PUSH1 0x0 DUP1 REVERT JUMPDEST POP JUMP JUMPDEST PUSH1 0x0 DUP2 CALLDATALOAD SWAP1 POP PUSH2 0xC02 DUP2 PUSH2 0xBDC JUMP JUMPDEST SWAP3 SWAP2 POP POP JUMP JUMPDEST PUSH1 0x0 DUP1 PUSH1 0x40 DUP4 DUP6 SUB SLT ISZERO PUSH2 0xC1F JUMPI PUSH2 0xC1E PUSH2 0xBC8 JUMP JUMPDEST JUMPDEST PUSH1 0x0 PUSH2 0xC2D DUP6 DUP3 DUP7 ADD PUSH2 0xBF3 JUMP JUMPDEST SWAP3 POP POP PUSH1 0x20 PUSH2 0xC3E DUP6 DUP3 DUP7 ADD PUSH2 0xBF3 JUMP JUMPDEST SWAP2 POP POP SWAP3 POP SWAP3 SWAP1 POP JUMP JUMPDEST PUSH1 0x0 PUSH20 0xFFFFFFFFFFFFFFFFFFFFFFFFFFFFFFFFFFFFFFFF DUP3 AND SWAP1 POP SWAP2 SWAP1 POP JUMP JUMPDEST PUSH1 0x0 PUSH2 0xC73 DUP3 PUSH2 0xC48 JUMP JUMPDEST SWAP1 POP SWAP2 SWAP1 POP JUMP JUMPDEST PUSH2 0xC83 DUP2 PUSH2 0xC68 JUMP JUMPDEST DUP2 EQ PUSH2 0xC8E JUMPI PUSH1 0x0 DUP1 REVERT JUMPDEST POP JUMP JUMPDEST PUSH1 0x0 DUP2 CALLDATALOAD SWAP1 POP PUSH2 0xCA0 DUP2 PUSH2 0xC7A JUMP JUMPDEST SWAP3 SWAP2 POP POP JUMP JUMPDEST PUSH1 0x0 PUSH1 0x20 DUP3 DUP5 SUB SLT ISZERO PUSH2 0xCBC JUMPI PUSH2 0xCBB PUSH2 0xBC8 JUMP JUMPDEST JUMPDEST PUSH1 0x0 PUSH2 0xCCA DUP5 DUP3 DUP6 ADD PUSH2 0xC91 JUMP JUMPDEST SWAP2 POP POP SWAP3 SWAP2 POP POP JUMP JUMPDEST PUSH2 0xCDC DUP2 PUSH2 0xBD2 JUMP JUMPDEST DUP3 MSTORE POP POP JUMP JUMPDEST PUSH1 0x0 PUSH1 0x20 DUP3 ADD SWAP1 POP PUSH2 0xCF7 PUSH1 0x0 DUP4 ADD DUP5 PUSH2 0xCD3 JUMP JUMPDEST SWAP3 SWAP2 POP POP JUMP JUMPDEST PUSH2 0xD06 DUP2 PUSH2 0xC68 JUMP JUMPDEST DUP3 MSTORE POP POP JUMP JUMPDEST PUSH1 0x0 PUSH1 0x20 DUP3 ADD SWAP1 POP PUSH2 0xD21 PUSH1 0x0 DUP4 ADD DUP5 PUSH2 0xCFD JUMP JUMPDEST SWAP3 SWAP2 POP POP JUMP JUMPDEST PUSH1 0x0 DUP1 REVERT JUMPDEST PUSH1 0x0 DUP1 REVERT JUMPDEST PUSH1 0x0 PUSH1 0x1F NOT PUSH1 0x1F DUP4 ADD AND SWAP1 POP SWAP2 SWAP1 POP JUMP JUMPDEST PUSH32 0x4E487B7100000000000000000000000000000000000000000000000000000000 PUSH1 0x0 MSTORE PUSH1 0x41 PUSH1 0x4 MSTORE PUSH1 0x24 PUSH1 0x0 REVERT JUMPDEST PUSH2 0xD7A DUP3 PUSH2 0xD31 JUMP JUMPDEST DUP2 ADD DUP2 DUP2 LT PUSH8 0xFFFFFFFFFFFFFFFF DUP3 GT OR ISZERO PUSH2 0xD99 JUMPI PUSH2 0xD98 PUSH2 0xD42 JUMP JUMPDEST JUMPDEST DUP1 PUSH1 0x40 MSTORE POP POP POP JUMP JUMPDEST PUSH1 0x0 PUSH2 0xDAC PUSH2 0xBBE JUMP JUMPDEST SWAP1 POP PUSH2 0xDB8 DUP3 DUP3 PUSH2 0xD71 JUMP JUMPDEST SWAP2 SWAP1 POP JUMP JUMPDEST PUSH1 0x0 PUSH8 0xFFFFFFFFFFFFFFFF DUP3 GT ISZERO PUSH2 0xDD8 JUMPI PUSH2 0xDD7 PUSH2 0xD42 JUMP JUMPDEST JUMPDEST PUSH2 0xDE1 DUP3 PUSH2 0xD31 JUMP JUMPDEST SWAP1 POP PUSH1 0x20 DUP2 ADD SWAP1 POP SWAP2 SWAP1 POP JUMP JUMPDEST DUP3 DUP2 DUP4 CALLDATACOPY PUSH1 0x0 DUP4 DUP4 ADD MSTORE POP POP POP JUMP JUMPDEST PUSH1 0x0 PUSH2 0xE10 PUSH2 0xE0B DUP5 PUSH2 0xDBD JUMP JUMPDEST PUSH2 0xDA2 JUMP JUMPDEST SWAP1 POP DUP3 DUP2 MSTORE PUSH1 0x20 DUP2 ADD DUP5 DUP5 DUP5 ADD GT ISZERO PUSH2 0xE2C JUMPI PUSH2 0xE2B PUSH2 0xD2C JUMP JUMPDEST JUMPDEST PUSH2 0xE37 DUP5 DUP3 DUP6 PUSH2 0xDEE JUMP JUMPDEST POP SWAP4 SWAP3 POP POP POP JUMP JUMPDEST PUSH1 0x0 DUP3 PUSH1 0x1F DUP4 ADD SLT PUSH2 0xE54 JUMPI PUSH2 0xE53 PUSH2 0xD27 JUMP JUMPDEST JUMPDEST DUP2 CALLDATALOAD PUSH2 0xE64 DUP5 DUP3 PUSH1 0x20 DUP7 ADD PUSH2 0xDFD JUMP JUMPDEST SWAP2 POP POP SWAP3 SWAP2 POP POP JUMP JUMPDEST PUSH1 0x0 PUSH1 0x20 DUP3 DUP5 SUB SLT ISZERO PUSH2 0xE83 JUMPI PUSH2 0xE82 PUSH2 0xBC8 JUMP JUMPDEST JUMPDEST PUSH1 0x0 DUP3 ADD CALLDATALOAD PUSH8 0xFFFFFFFFFFFFFFFF DUP2 GT ISZERO PUSH2 0xEA1 JUMPI PUSH2 0xEA0 PUSH2 0xBCD JUMP JUMPDEST JUMPDEST PUSH2 0xEAD DUP5 DUP3 DUP6 ADD PUSH2 0xE3F JUMP JUMPDEST SWAP2 POP POP SWAP3 SWAP2 POP POP JUMP JUMPDEST PUSH1 0x0 DUP3 DUP3 MSTORE PUSH1 0x20 DUP3 ADD SWAP1 POP SWAP3 SWAP2 POP POP JUMP JUMPDEST PUSH32 0x4F6E6C79206F776E65722063616E2073657420636C61696D2072616E67650000 PUSH1 0x0 DUP3 ADD MSTORE POP JUMP JUMPDEST PUSH1 0x0 PUSH2 0xEFD PUSH1 0x1E DUP4 PUSH2 0xEB6 JUMP JUMPDEST SWAP2 POP PUSH2 0xF08 DUP3 PUSH2 0xEC7 JUMP JUMPDEST PUSH1 0x20 DUP3 ADD SWAP1 POP SWAP2 SWAP1 POP JUMP JUMPDEST PUSH1 0x0 PUSH1 0x20 DUP3 ADD SWAP1 POP DUP2 DUP2 SUB PUSH1 0x0 DUP4 ADD MSTORE PUSH2 0xF2C DUP2 PUSH2 0xEF0 JUMP JUMPDEST SWAP1 POP SWAP2 SWAP1 POP JUMP JUMPDEST PUSH32 0x4D696E20616D6F756E74206D757374206265206C657373207468616E206F7220 PUSH1 0x0 DUP3 ADD MSTORE PUSH32 0x657175616C20746F206D617820616D6F756E7400000000000000000000000000 PUSH1 0x20 DUP3 ADD MSTORE POP JUMP JUMPDEST PUSH1 0x0 PUSH2 0xF8F PUSH1 0x33 DUP4 PUSH2 0xEB6 JUMP JUMPDEST SWAP2 POP PUSH2 0xF9A DUP3 PUSH2 0xF33 JUMP JUMPDEST PUSH1 0x40 DUP3 ADD SWAP1 POP SWAP2 SWAP1 POP JUMP JUMPDEST PUSH1 0x0 PUSH1 0x20 DUP3 ADD SWAP1 POP DUP2 DUP2 SUB PUSH1 0x0 DUP4 ADD MSTORE PUSH2 0xFBE DUP2 PUSH2 0xF82 JUMP JUMPDEST SWAP1 POP SWAP2 SWAP1 POP JUMP JUMPDEST PUSH32 0x4F6E6C79206F776E65722063616E207769746864726177000000000000000000 PUSH1 0x0 DUP3 ADD MSTORE POP JUMP JUMPDEST PUSH1 0x0 PUSH2 0xFFB PUSH1 0x17 DUP4 PUSH2 0xEB6 JUMP JUMPDEST SWAP2 POP PUSH2 0x1006 DUP3 PUSH2 0xFC5 JUMP JUMPDEST PUSH1 0x20 DUP3 ADD SWAP1 POP SWAP2 SWAP1 POP JUMP JUMPDEST PUSH1 0x0 PUSH1 0x20 DUP3 ADD SWAP1 POP DUP2 DUP2 SUB PUSH1 0x0 DUP4 ADD MSTORE PUSH2 0x102A DUP2 PUSH2 0xFEE JUMP JUMPDEST SWAP1 POP SWAP2 SWAP1 POP JUMP JUMPDEST PUSH32 0x4E6F2066756E647320746F207769746864726177000000000000000000000000 PUSH1 0x0 DUP3 ADD MSTORE POP JUMP JUMPDEST PUSH1 0x0 PUSH2 0x1067 PUSH1 0x14 DUP4 PUSH2 0xEB6 JUMP JUMPDEST SWAP2 POP PUSH2 0x1072 DUP3 PUSH2 0x1031 JUMP JUMPDEST PUSH1 0x20 DUP3 ADD SWAP1 POP SWAP2 SWAP1 POP JUMP JUMPDEST PUSH1 0x0 PUSH1 0x20 DUP3 ADD SWAP1 POP DUP2 DUP2 SUB PUSH1 0x0 DUP4 ADD MSTORE PUSH2 0x1096 DUP2 PUSH2 0x105A JUMP JUMPDEST SWAP1 POP SWAP2 SWAP1 POP JUMP JUMPDEST PUSH1 0x0 DUP2 SWAP1 POP SWAP3 SWAP2 POP POP JUMP JUMPDEST POP JUMP JUMPDEST PUSH1 0x0 PUSH2 0x10B8 PUSH1 0x0 DUP4 PUSH2 0x109D JUMP JUMPDEST SWAP2 POP PUSH2 0x10C3 DUP3 PUSH2 0x10A8 JUMP JUMPDEST PUSH1 0x0 DUP3 ADD SWAP1 POP SWAP2 SWAP1 POP JUMP JUMPDEST PUSH1 0x0 PUSH2 0x10D9 DUP3 PUSH2 0x10AB JUMP JUMPDEST SWAP2 POP DUP2 SWAP1 POP SWAP2 SWAP1 POP JUMP JUMPDEST PUSH32 0x4661696C656420746F2077697468647261770000000000000000000000000000 PUSH1 0x0 DUP3 ADD MSTORE POP JUMP JUMPDEST PUSH1 0x0 PUSH2 0x1119 PUSH1 0x12 DUP4 PUSH2 0xEB6 JUMP JUMPDEST SWAP2 POP PUSH2 0x1124 DUP3 PUSH2 0x10E3 JUMP JUMPDEST PUSH1 0x20 DUP3 ADD SWAP1 POP SWAP2 SWAP1 POP JUMP JUMPDEST PUSH1 0x0 PUSH1 0x20 DUP3 ADD SWAP1 POP DUP2 DUP2 SUB PUSH1 0x0 DUP4 ADD MSTORE PUSH2 0x1148 DUP2 PUSH2 0x110C JUMP JUMPDEST SWAP1 POP SWAP2 SWAP1 POP JUMP JUMPDEST PUSH32 0x4E487B7100000000000000000000000000000000000000000000000000000000 PUSH1 0x0 MSTORE PUSH1 0x11 PUSH1 0x4 MSTORE PUSH1 0x24 PUSH1 0x0 REVERT JUMPDEST PUSH1 0x0 PUSH2 0x1189 DUP3 PUSH2 0xBD2 JUMP JUMPDEST SWAP2 POP PUSH2 0x1194 DUP4 PUSH2 0xBD2 JUMP JUMPDEST SWAP3 POP DUP3 DUP3 ADD SWAP1 POP DUP1 DUP3 GT ISZERO PUSH2 0x11AC JUMPI PUSH2 0x11AB PUSH2 0x114F JUMP JUMPDEST JUMPDEST SWAP3 SWAP2 POP POP JUMP JUMPDEST PUSH1 0x0 DUP2 PUSH1 0x60 SHL SWAP1 POP SWAP2 SWAP1 POP JUMP JUMPDEST PUSH1 0x0 PUSH2 0x11CA DUP3 PUSH2 0x11B2 JUMP JUMPDEST SWAP1 POP SWAP2 SWAP1 POP JUMP JUMPDEST PUSH1 0x0 PUSH2 0x11DC DUP3 PUSH2 0x11BF JUMP JUMPDEST SWAP1 POP SWAP2 SWAP1 POP JUMP JUMPDEST PUSH2 0x11F4 PUSH2 0x11EF DUP3 PUSH2 0xC68 JUMP JUMPDEST PUSH2 0x11D1 JUMP JUMPDEST DUP3 MSTORE POP POP JUMP JUMPDEST PUSH1 0x0 DUP2 SWAP1 POP SWAP2 SWAP1 POP JUMP JUMPDEST PUSH2 0x1215 PUSH2 0x1210 DUP3 PUSH2 0xBD2 JUMP JUMPDEST PUSH2 0x11FA JUMP JUMPDEST DUP3 MSTORE POP POP JUMP JUMPDEST PUSH1 0x0 PUSH2 0x1227 DUP3 DUP10 PUSH2 0x11E3 JUMP JUMPDEST PUSH1 0x14 DUP3 ADD SWAP2 POP PUSH2 0x1237 DUP3 DUP9 PUSH2 0x1204 JUMP JUMPDEST PUSH1 0x20 DUP3 ADD SWAP2 POP PUSH2 0x1247 DUP3 DUP8 PUSH2 0x1204 JUMP JUMPDEST PUSH1 0x20 DUP3 ADD SWAP2 POP PUSH2 0x1257 DUP3 DUP7 PUSH2 0x1204 JUMP JUMPDEST PUSH1 0x20 DUP3 ADD SWAP2 POP PUSH2 0x1267 DUP3 DUP6 PUSH2 0x1204 JUMP JUMPDEST PUSH1 0x20 DUP3 ADD SWAP2 POP PUSH2 0x1277 DUP3 DUP5 PUSH2 0x11E3 JUMP JUMPDEST PUSH1 0x14 DUP3 ADD SWAP2 POP DUP2 SWAP1 POP SWAP8 SWAP7 POP POP POP POP POP POP POP JUMP JUMPDEST PUSH32 0x496E76616C6964207369676E6174757265000000000000000000000000000000 PUSH1 0x0 DUP3 ADD MSTORE POP JUMP JUMPDEST PUSH1 0x0 PUSH2 0x12C1 PUSH1 0x11 DUP4 PUSH2 0xEB6 JUMP JUMPDEST SWAP2 POP PUSH2 0x12CC DUP3 PUSH2 0x128B JUMP JUMPDEST PUSH1 0x20 DUP3 ADD SWAP1 POP SWAP2 SWAP1 POP JUMP JUMPDEST PUSH1 0x0 PUSH1 0x20 DUP3 ADD SWAP1 POP DUP2 DUP2 SUB PUSH1 0x0 DUP4 ADD MSTORE PUSH2 0x12F0 DUP2 PUSH2 0x12B4 JUMP JUMPDEST SWAP1 POP SWAP2 SWAP1 POP JUMP JUMPDEST PUSH1 0x0 DUP2 MLOAD SWAP1 POP SWAP2 SWAP1 POP JUMP JUMPDEST PUSH1 0x0 JUMPDEST DUP4 DUP2 LT ISZERO PUSH2 0x1320 JUMPI DUP1 DUP3 ADD MLOAD DUP2 DUP5 ADD MSTORE PUSH1 0x20 DUP2 ADD SWAP1 POP PUSH2 0x1305 JUMP JUMPDEST PUSH1 0x0 DUP5 DUP5 ADD MSTORE POP POP POP POP JUMP JUMPDEST PUSH1 0x0 PUSH2 0x1337 DUP3 PUSH2 0x12F7 JUMP JUMPDEST PUSH2 0x1341 DUP2 DUP6 PUSH2 0x109D JUMP JUMPDEST SWAP4 POP PUSH2 0x1351 DUP2 DUP6 PUSH1 0x20 DUP7 ADD PUSH2 0x1302 JUMP JUMPDEST DUP1 DUP5 ADD SWAP2 POP POP SWAP3 SWAP2 POP POP JUMP JUMPDEST PUSH1 0x0 PUSH2 0x1369 DUP3 DUP5 PUSH2 0x132C JUMP JUMPDEST SWAP2 POP DUP2 SWAP1 POP SWAP3 SWAP2 POP POP JUMP JUMPDEST PUSH1 0x0 DUP2 MLOAD SWAP1 POP PUSH2 0x1383 DUP2 PUSH2 0xBDC JUMP JUMPDEST SWAP3 SWAP2 POP POP JUMP JUMPDEST PUSH1 0x0 DUP1 PUSH1 0x0 PUSH1 0x60 DUP5 DUP7 SUB SLT ISZERO PUSH2 0x13A2 JUMPI PUSH2 0x13A1 PUSH2 0xBC8 JUMP JUMPDEST JUMPDEST PUSH1 0x0 PUSH2 0x13B0 DUP7 DUP3 DUP8 ADD PUSH2 0x1374 JUMP JUMPDEST SWAP4 POP POP PUSH1 0x20 PUSH2 0x13C1 DUP7 DUP3 DUP8 ADD PUSH2 0x1374 JUMP JUMPDEST SWAP3 POP POP PUSH1 0x40 PUSH2 0x13D2 DUP7 DUP3 DUP8 ADD PUSH2 0x1374 JUMP JUMPDEST SWAP2 POP POP SWAP3 POP SWAP3 POP SWAP3 JUMP JUMPDEST PUSH32 0x5369676E61747572652065787069726564000000000000000000000000000000 PUSH1 0x0 DUP3 ADD MSTORE POP JUMP JUMPDEST PUSH1 0x0 PUSH2 0x1412 PUSH1 0x11 DUP4 PUSH2 0xEB6 JUMP JUMPDEST SWAP2 POP PUSH2 0x141D DUP3 PUSH2 0x13DC JUMP JUMPDEST PUSH1 0x20 DUP3 ADD SWAP1 POP SWAP2 SWAP1 POP JUMP JUMPDEST PUSH1 0x0 PUSH1 0x20 DUP3 ADD SWAP1 POP DUP2 DUP2 SUB PUSH1 0x0 DUP4 ADD MSTORE PUSH2 0x1441 DUP2 PUSH2 0x1405 JUMP JUMPDEST SWAP1 POP SWAP2 SWAP1 POP JUMP JUMPDEST PUSH32 0x496E76616C6964206F722075736564206E6F6E63650000000000000000000000 PUSH1 0x0 DUP3 ADD MSTORE POP JUMP JUMPDEST PUSH1 0x0 PUSH2 0x147E PUSH1 0x15 DUP4 PUSH2 0xEB6 JUMP JUMPDEST SWAP2 POP PUSH2 0x1489 DUP3 PUSH2 0x1448 JUMP JUMPDEST PUSH1 0x20 DUP3 ADD SWAP1 POP SWAP2 SWAP1 POP JUMP JUMPDEST PUSH1 0x0 PUSH1 0x20 DUP3 ADD SWAP1 POP DUP2 DUP2 SUB PUSH1 0x0 DUP4 ADD MSTORE PUSH2 0x14AD DUP2 PUSH2 0x1471 JUMP JUMPDEST SWAP1 POP SWAP2 SWAP1 POP JUMP JUMPDEST PUSH32 0x416D6F756E74206F7574206F662072616E676500000000000000000000000000 PUSH1 0x0 DUP3 ADD MSTORE POP JUMP JUMPDEST PUSH1 0x0 PUSH2 0x14EA PUSH1 0x13 DUP4 PUSH2 0xEB6 JUMP JUMPDEST SWAP2 POP PUSH2 0x14F5 DUP3 PUSH2 0x14B4 JUMP JUMPDEST PUSH1 0x20 DUP3 ADD SWAP1 POP SWAP2 SWAP1 POP JUMP JUMPDEST PUSH1 0x0 PUSH1 0x20 DUP3 ADD SWAP1 POP DUP2 DUP2 SUB PUSH1 0x0 DUP4 ADD MSTORE PUSH2 0x1519 DUP2 PUSH2 0x14DD JUMP JUMPDEST SWAP1 POP SWAP2 SWAP1 POP JUMP JUMPDEST PUSH32 0x496E73756666696369656E7420636F6E74726163742062616C616E6365000000 PUSH1 0x0 DUP3 ADD MSTORE POP JUMP JUMPDEST PUSH1 0x0 PUSH2 0x1556 PUSH1 0x1D DUP4 PUSH2 0xEB6 JUMP JUMPDEST SWAP2 POP PUSH2 0x1561 DUP3 PUSH2 0x1520 JUMP JUMPDEST PUSH1 0x20 DUP3 ADD SWAP1 POP SWAP2 SWAP1 POP JUMP JUMPDEST PUSH1 0x0 PUSH1 0x20 DUP3 ADD SWAP1 POP DUP2 DUP2 SUB PUSH1 0x0 DUP4 ADD MSTORE PUSH2 0x1585 DUP2 PUSH2 0x1549 JUMP JUMPDEST SWAP1 POP SWAP2 SWAP1 POP JUMP JUMPDEST PUSH1 0x0 PUSH2 0x1597 DUP3 PUSH2 0xBD2 JUMP JUMPDEST SWAP2 POP PUSH32 0xFFFFFFFFFFFFFFFFFFFFFFFFFFFFFFFFFFFFFFFFFFFFFFFFFFFFFFFFFFFFFFFF DUP3 SUB PUSH2 0x15C9 JUMPI PUSH2 0x15C8 PUSH2 0x114F JUMP JUMPDEST JUMPDEST PUSH1 0x1 DUP3 ADD SWAP1 POP SWAP2 SWAP1 POP JUMP JUMPDEST PUSH32 0x4661696C656420746F2073656E64204D4F4E0000000000000000000000000000 PUSH1 0x0 DUP3 ADD MSTORE POP JUMP JUMPDEST PUSH1 0x0 PUSH2 0x160A PUSH1 0x12 DUP4 PUSH2 0xEB6 JUMP JUMPDEST SWAP2 POP PUSH2 0x1615 DUP3 PUSH2 0x15D4 JUMP JUMPDEST PUSH1 0x20 DUP3 ADD SWAP1 POP SWAP2 SWAP1 POP JUMP JUMPDEST PUSH1 0x0 PUSH1 0x20 DUP3 ADD SWAP1 POP DUP2 DUP2 SUB PUSH1 0x0 DUP4 ADD MSTORE PUSH2 0x1639 DUP2 PUSH2 0x15FD JUMP JUMPDEST SWAP1 POP SWAP2 SWAP1 POP JUMP JUMPDEST PUSH1 0x0 PUSH1 0x40 DUP3 ADD SWAP1 POP PUSH2 0x1655 PUSH1 0x0 DUP4 ADD DUP6 PUSH2 0xCD3 JUMP JUMPDEST PUSH2 0x1662 PUSH1 0x20 DUP4 ADD DUP5 PUSH2 0xCD3 JUMP JUMPDEST SWAP4 SWAP3 POP POP POP JUMP JUMPDEST PUSH1 0x0 DUP2 SWAP1 POP SWAP3 SWAP2 POP POP JUMP JUMPDEST PUSH32 0x19457468657265756D205369676E6564204D6573736167653A0A333200000000 PUSH1 0x0 DUP3 ADD MSTORE POP JUMP JUMPDEST PUSH1 0x0 PUSH2 0x16AA PUSH1 0x1C DUP4 PUSH2 0x1669 JUMP JUMPDEST SWAP2 POP PUSH2 0x16B5 DUP3 PUSH2 0x1674 JUMP JUMPDEST PUSH1 0x1C DUP3 ADD SWAP1 POP SWAP2 SWAP1 POP JUMP JUMPDEST PUSH1 0x0 DUP2 SWAP1 POP SWAP2 SWAP1 POP JUMP JUMPDEST PUSH1 0x0 DUP2 SWAP1 POP SWAP2 SWAP1 POP JUMP JUMPDEST PUSH2 0x16E5 PUSH2 0x16E0 DUP3 PUSH2 0x16C0 JUMP JUMPDEST PUSH2 0x16CA JUMP JUMPDEST DUP3 MSTORE POP POP JUMP JUMPDEST PUSH1 0x0 PUSH2 0x16F6 DUP3 PUSH2 0x169D JUMP JUMPDEST SWAP2 POP PUSH2 0x1702 DUP3 DUP5 PUSH2 0x16D4 JUMP JUMPDEST PUSH1 0x20 DUP3 ADD SWAP2 POP DUP2 SWAP1 POP SWAP3 SWAP2 POP POP JUMP JUMPDEST PUSH2 0x171A DUP2 PUSH2 0x16C0 JUMP JUMPDEST DUP3 MSTORE POP POP JUMP JUMPDEST PUSH1 0x0 PUSH1 0xFF DUP3 AND SWAP1 POP SWAP2 SWAP1 POP JUMP JUMPDEST PUSH2 0x1736 DUP2 PUSH2 0x1720 JUMP JUMPDEST DUP3 MSTORE POP POP JUMP JUMPDEST PUSH1 0x0 PUSH1 0x80 DUP3 ADD SWAP1 POP PUSH2 0x1751 PUSH1 0x0 DUP4 ADD DUP8 PUSH2 0x1711 JUMP JUMPDEST PUSH2 0x175E PUSH1 0x20 DUP4 ADD DUP7 PUSH2 0x172D JUMP JUMPDEST PUSH2 0x176B PUSH1 0x40 DUP4 ADD DUP6 PUSH2 0x1711 JUMP JUMPDEST PUSH2 0x1778 PUSH1 0x60 DUP4 ADD DUP5 PUSH2 0x1711 JUMP JUMPDEST SWAP6 SWAP5 POP POP POP POP POP JUMP JUMPDEST PUSH32 0x496E76616C6964207369676E6174757265206C656E6774680000000000000000 PUSH1 0x0 DUP3 ADD MSTORE POP JUMP JUMPDEST PUSH1 0x0 PUSH2 0x17B7 PUSH1 0x18 DUP4 PUSH2 0xEB6 JUMP JUMPDEST SWAP2 POP PUSH2 0x17C2 DUP3 PUSH2 0x1781 JUMP JUMPDEST PUSH1 0x20 DUP3 ADD SWAP1 POP SWAP2 SWAP1 POP JUMP JUMPDEST PUSH1 0x0 PUSH1 0x20 DUP3 ADD SWAP1 POP DUP2 DUP2 SUB PUSH1 0x0 DUP4 ADD MSTORE PUSH2 0x17E6 DUP2 PUSH2 0x17AA JUMP JUMPDEST SWAP1 POP SWAP2 SWAP1 POP JUMP INVALID LOG1 PUSH5 0x736F6C6343 STOP ADDMOD SHR STOP EXP "
        },
        "methodIdentifiers": {
          "claim(bytes)": "c63ff8dd",
          "claimedNonce(address)": "aac27103",
          "getContractBalance()": "6f9fb98a",
          "getNonce(address)": "2d0335ab",
          "getTotalClaimed(address)": "522bf1d4",
          "maxClaimAmount()": "aeef6439",
          "minClaimAmount()": "adc25bde",
          "owner()": "8da5cb5b",
          "setClaimRange(uint256,uint256)": "26932aac",
          "totalClaimed(address)": "ef5d9ae8",
          "withdraw()": "3ccfd60b"
        }
      }
    }
  }
}